{
  "contractName": "CatCore",
  "abi": [
    {
      "anonymous": false,
      "inputs": [
        {
          "indexed": true,
          "internalType": "address",
          "name": "_owner",
          "type": "address"
        },
        {
          "indexed": true,
          "internalType": "address",
          "name": "_approved",
          "type": "address"
        },
        {
          "indexed": false,
          "internalType": "uint256",
          "name": "_tokenId",
          "type": "uint256"
        }
      ],
      "name": "Approval",
      "type": "event"
    },
    {
      "anonymous": false,
      "inputs": [
        {
          "indexed": true,
          "internalType": "uint256",
          "name": "_catId",
          "type": "uint256"
        },
        {
          "indexed": true,
          "internalType": "address",
          "name": "buyer",
          "type": "address"
        },
        {
          "indexed": true,
          "internalType": "address",
          "name": "seller",
          "type": "address"
        }
      ],
      "name": "BuyShopCat",
      "type": "event"
    },
    {
      "anonymous": false,
      "inputs": [
        {
          "indexed": false,
          "internalType": "uint256",
          "name": "catId",
          "type": "uint256"
        },
        {
          "indexed": false,
          "internalType": "string",
          "name": "name",
          "type": "string"
        },
        {
          "indexed": false,
          "internalType": "uint256",
          "name": "dna",
          "type": "uint256"
        }
      ],
      "name": "NewCat",
      "type": "event"
    },
    {
      "anonymous": false,
      "inputs": [
        {
          "indexed": true,
          "internalType": "address",
          "name": "previousOwner",
          "type": "address"
        },
        {
          "indexed": true,
          "internalType": "address",
          "name": "newOwner",
          "type": "address"
        }
      ],
      "name": "OwnershipTransferred",
      "type": "event"
    },
    {
      "anonymous": false,
      "inputs": [
        {
          "indexed": true,
          "internalType": "uint256",
          "name": "_catId",
          "type": "uint256"
        },
        {
          "indexed": true,
          "internalType": "address",
          "name": "seller",
          "type": "address"
        }
      ],
      "name": "SaleCat",
      "type": "event"
    },
    {
      "anonymous": false,
      "inputs": [
        {
          "indexed": true,
          "internalType": "address",
          "name": "_from",
          "type": "address"
        },
        {
          "indexed": true,
          "internalType": "address",
          "name": "_to",
          "type": "address"
        },
        {
          "indexed": false,
          "internalType": "uint256",
          "name": "_tokenId",
          "type": "uint256"
        }
      ],
      "name": "Transfer",
      "type": "event"
    },
    {
      "anonymous": false,
      "inputs": [
        {
          "indexed": false,
          "internalType": "uint256",
          "name": "_catId",
          "type": "uint256"
        },
        {
          "indexed": false,
          "internalType": "uint256",
          "name": "_targetId",
          "type": "uint256"
        }
      ],
      "name": "becomeFriend",
      "type": "event"
    },
    {
      "payable": true,
      "stateMutability": "payable",
      "type": "fallback"
    },
    {
      "constant": false,
      "inputs": [
        {
          "internalType": "uint256",
          "name": "_catId",
          "type": "uint256"
        },
        {
          "internalType": "uint256",
          "name": "_targetId",
          "type": "uint256"
        }
      ],
      "name": "_becomeFriend",
      "outputs": [],
      "payable": false,
      "stateMutability": "nonpayable",
      "type": "function"
    },
    {
      "constant": false,
      "inputs": [
        {
          "internalType": "address",
          "name": "_to",
          "type": "address"
        },
        {
          "internalType": "uint256",
          "name": "_tokenId",
          "type": "uint256"
        }
      ],
      "name": "approve",
      "outputs": [],
      "payable": false,
      "stateMutability": "nonpayable",
      "type": "function"
    },
    {
      "constant": true,
      "inputs": [
        {
          "internalType": "address",
          "name": "_owner",
          "type": "address"
        }
      ],
      "name": "balanceOf",
      "outputs": [
        {
          "internalType": "uint256",
          "name": "_balance",
          "type": "uint256"
        }
      ],
      "payable": false,
      "stateMutability": "view",
      "type": "function"
    },
    {
      "constant": false,
      "inputs": [
        {
          "internalType": "string",
          "name": "_name",
          "type": "string"
        }
      ],
      "name": "buyRandomCat",
      "outputs": [],
      "payable": true,
      "stateMutability": "payable",
      "type": "function"
    },
    {
      "constant": false,
      "inputs": [
        {
          "internalType": "uint256",
          "name": "_catId",
          "type": "uint256"
        }
      ],
      "name": "buyShopCat",
      "outputs": [],
      "payable": true,
      "stateMutability": "payable",
      "type": "function"
    },
    {
      "constant": true,
      "inputs": [],
      "name": "catCount",
      "outputs": [
        {
          "internalType": "uint256",
          "name": "",
          "type": "uint256"
        }
      ],
      "payable": false,
      "stateMutability": "view",
      "type": "function"
    },
    {
      "constant": true,
      "inputs": [
        {
          "internalType": "uint256",
          "name": "",
          "type": "uint256"
        }
      ],
      "name": "catFeedTimes",
      "outputs": [
        {
          "internalType": "uint256",
          "name": "",
          "type": "uint256"
        }
      ],
      "payable": false,
      "stateMutability": "view",
      "type": "function"
    },
    {
      "constant": true,
      "inputs": [],
      "name": "catPrice",
      "outputs": [
        {
          "internalType": "uint256",
          "name": "",
          "type": "uint256"
        }
      ],
      "payable": false,
      "stateMutability": "view",
      "type": "function"
    },
    {
      "constant": true,
      "inputs": [
        {
          "internalType": "uint256",
          "name": "",
          "type": "uint256"
        }
      ],
      "name": "catShop",
      "outputs": [
        {
          "internalType": "address payable",
          "name": "seller",
          "type": "address"
        },
        {
          "internalType": "uint256",
          "name": "price",
          "type": "uint256"
        }
      ],
      "payable": false,
      "stateMutability": "view",
      "type": "function"
    },
    {
      "constant": true,
      "inputs": [
        {
          "internalType": "uint256",
          "name": "",
          "type": "uint256"
        }
      ],
      "name": "catToOwner",
      "outputs": [
        {
          "internalType": "address",
          "name": "",
          "type": "address"
        }
      ],
      "payable": false,
      "stateMutability": "view",
      "type": "function"
    },
    {
      "constant": true,
      "inputs": [
        {
          "internalType": "uint256",
          "name": "",
          "type": "uint256"
        }
      ],
      "name": "cats",
      "outputs": [
        {
          "internalType": "string",
          "name": "name",
          "type": "string"
        },
        {
          "internalType": "uint256",
          "name": "dna",
          "type": "uint256"
        },
        {
          "internalType": "uint16",
          "name": "winCount",
          "type": "uint16"
        },
        {
          "internalType": "uint16",
          "name": "hairBall",
          "type": "uint16"
        },
        {
          "internalType": "uint32",
          "name": "level",
          "type": "uint32"
        },
        {
          "internalType": "uint32",
          "name": "readyTime",
          "type": "uint32"
        }
      ],
      "payable": false,
      "stateMutability": "view",
      "type": "function"
    },
    {
      "constant": false,
      "inputs": [
        {
          "internalType": "uint256",
          "name": "price",
          "type": "uint256"
        }
      ],
      "name": "changeCatPrice",
      "outputs": [],
      "payable": false,
      "stateMutability": "nonpayable",
      "type": "function"
    },
    {
      "constant": false,
      "inputs": [
        {
          "internalType": "uint256",
          "name": "_catId",
          "type": "uint256"
        },
        {
          "internalType": "uint256",
          "name": "dna",
          "type": "uint256"
        }
      ],
      "name": "changeDna",
      "outputs": [],
      "payable": false,
      "stateMutability": "nonpayable",
      "type": "function"
    },
    {
      "constant": false,
      "inputs": [
        {
          "internalType": "uint256",
          "name": "_catId",
          "type": "uint256"
        },
        {
          "internalType": "string",
          "name": "_newName",
          "type": "string"
        }
      ],
      "name": "changeName",
      "outputs": [],
      "payable": false,
      "stateMutability": "nonpayable",
      "type": "function"
    },
    {
      "constant": true,
      "inputs": [],
      "name": "coolingTime",
      "outputs": [
        {
          "internalType": "uint256",
          "name": "",
          "type": "uint256"
        }
      ],
      "payable": false,
      "stateMutability": "view",
      "type": "function"
    },
    {
      "constant": false,
      "inputs": [
        {
          "internalType": "string",
          "name": "_name",
          "type": "string"
        }
      ],
      "name": "createRandomCat",
      "outputs": [],
      "payable": false,
      "stateMutability": "nonpayable",
      "type": "function"
    },
    {
      "constant": false,
      "inputs": [
        {
          "internalType": "uint256",
          "name": "_catId",
          "type": "uint256"
        }
      ],
      "name": "feed",
      "outputs": [],
      "payable": false,
      "stateMutability": "nonpayable",
      "type": "function"
    },
    {
      "constant": true,
      "inputs": [
        {
          "internalType": "address",
          "name": "_owner",
          "type": "address"
        }
      ],
      "name": "getCatsByOwner",
      "outputs": [
        {
          "internalType": "uint256[]",
          "name": "",
          "type": "uint256[]"
        }
      ],
      "payable": false,
      "stateMutability": "view",
      "type": "function"
    },
    {
      "constant": true,
      "inputs": [],
      "name": "getShopCats",
      "outputs": [
        {
          "internalType": "uint256[]",
          "name": "",
          "type": "uint256[]"
        }
      ],
      "payable": false,
      "stateMutability": "view",
      "type": "function"
    },
    {
      "constant": false,
      "inputs": [
        {
          "internalType": "uint256",
          "name": "_catId",
          "type": "uint256"
        },
        {
          "internalType": "uint256",
          "name": "_targetId",
          "type": "uint256"
        }
      ],
      "name": "invite",
      "outputs": [],
      "payable": false,
      "stateMutability": "nonpayable",
      "type": "function"
    },
    {
      "constant": false,
      "inputs": [
        {
          "internalType": "uint256",
          "name": "_catId",
          "type": "uint256"
        }
      ],
      "name": "levelUp",
      "outputs": [],
      "payable": true,
      "stateMutability": "payable",
      "type": "function"
    },
    {
      "constant": true,
      "inputs": [],
      "name": "levelUpFee",
      "outputs": [
        {
          "internalType": "uint256",
          "name": "",
          "type": "uint256"
        }
      ],
      "payable": false,
      "stateMutability": "view",
      "type": "function"
    },
    {
      "constant": true,
      "inputs": [],
      "name": "minPrice",
      "outputs": [
        {
          "internalType": "uint256",
          "name": "",
          "type": "uint256"
        }
      ],
      "payable": false,
      "stateMutability": "view",
      "type": "function"
    },
    {
      "constant": true,
      "inputs": [],
      "name": "name",
      "outputs": [
        {
          "internalType": "string",
          "name": "",
          "type": "string"
        }
      ],
      "payable": false,
      "stateMutability": "view",
      "type": "function"
    },
    {
      "constant": true,
      "inputs": [],
      "name": "owner",
      "outputs": [
        {
          "internalType": "address payable",
          "name": "",
          "type": "address"
        }
      ],
      "payable": false,
      "stateMutability": "view",
      "type": "function"
    },
    {
      "constant": true,
      "inputs": [
        {
          "internalType": "uint256",
          "name": "_tokenId",
          "type": "uint256"
        }
      ],
      "name": "ownerOf",
      "outputs": [
        {
          "internalType": "address",
          "name": "_owner",
          "type": "address"
        }
      ],
      "payable": false,
      "stateMutability": "view",
      "type": "function"
    },
    {
      "constant": false,
      "inputs": [
        {
          "internalType": "uint256",
          "name": "_catId",
          "type": "uint256"
        },
        {
          "internalType": "uint256",
          "name": "_price",
          "type": "uint256"
        }
      ],
      "name": "saleMyCat",
      "outputs": [],
      "payable": false,
      "stateMutability": "nonpayable",
      "type": "function"
    },
    {
      "constant": false,
      "inputs": [
        {
          "internalType": "uint256",
          "name": "_catId",
          "type": "uint256"
        },
        {
          "internalType": "uint256",
          "name": "_targetId",
          "type": "uint256"
        }
      ],
      "name": "sendGift",
      "outputs": [],
      "payable": false,
      "stateMutability": "nonpayable",
      "type": "function"
    },
    {
      "constant": false,
      "inputs": [
        {
          "internalType": "uint256",
          "name": "_inviteLevel",
          "type": "uint256"
        }
      ],
      "name": "setInviteLevel",
      "outputs": [],
      "payable": false,
      "stateMutability": "nonpayable",
      "type": "function"
    },
    {
      "constant": false,
      "inputs": [
        {
          "internalType": "uint256",
          "name": "_fee",
          "type": "uint256"
        }
      ],
      "name": "setLevelUpFee",
      "outputs": [],
      "payable": false,
      "stateMutability": "nonpayable",
      "type": "function"
    },
    {
      "constant": false,
      "inputs": [
        {
          "internalType": "uint256",
          "name": "_loveLevel",
          "type": "uint256"
        }
      ],
      "name": "setLoveLevel",
      "outputs": [],
      "payable": false,
      "stateMutability": "nonpayable",
      "type": "function"
    },
    {
      "constant": false,
      "inputs": [
        {
          "internalType": "uint256",
          "name": "_minPrice",
          "type": "uint256"
        }
      ],
      "name": "setMinPrice",
      "outputs": [],
      "payable": false,
      "stateMutability": "nonpayable",
      "type": "function"
    },
    {
      "constant": false,
      "inputs": [
        {
          "internalType": "uint256",
          "name": "_tax",
          "type": "uint256"
        }
      ],
      "name": "setTax",
      "outputs": [],
      "payable": false,
      "stateMutability": "nonpayable",
      "type": "function"
    },
    {
      "constant": false,
      "inputs": [
        {
          "internalType": "uint256",
          "name": "_visitSuccessProbability",
          "type": "uint256"
        },
        {
          "internalType": "uint256",
          "name": "i",
          "type": "uint256"
        }
      ],
      "name": "setVisitSuccessProbability",
      "outputs": [],
      "payable": false,
      "stateMutability": "nonpayable",
      "type": "function"
    },
    {
      "constant": true,
      "inputs": [],
      "name": "symbol",
      "outputs": [
        {
          "internalType": "string",
          "name": "",
          "type": "string"
        }
      ],
      "payable": false,
      "stateMutability": "view",
      "type": "function"
    },
    {
      "constant": false,
      "inputs": [
        {
          "internalType": "uint256",
          "name": "_tokenId",
          "type": "uint256"
        }
      ],
      "name": "takeOwnership",
      "outputs": [],
      "payable": false,
      "stateMutability": "nonpayable",
      "type": "function"
    },
    {
      "constant": true,
      "inputs": [],
      "name": "tax",
      "outputs": [
        {
          "internalType": "uint256",
          "name": "",
          "type": "uint256"
        }
      ],
      "payable": false,
      "stateMutability": "view",
      "type": "function"
    },
    {
      "constant": false,
      "inputs": [
        {
          "internalType": "address",
          "name": "_to",
          "type": "address"
        },
        {
          "internalType": "uint256",
          "name": "_tokenId",
          "type": "uint256"
        }
      ],
      "name": "transfer",
      "outputs": [],
      "payable": false,
      "stateMutability": "nonpayable",
      "type": "function"
    },
    {
      "constant": false,
      "inputs": [
        {
          "internalType": "address payable",
          "name": "newOwner",
          "type": "address"
        }
      ],
      "name": "transferOwnership",
      "outputs": [],
      "payable": false,
      "stateMutability": "nonpayable",
      "type": "function"
    },
    {
      "constant": false,
      "inputs": [
        {
          "internalType": "uint256",
          "name": "_catId",
          "type": "uint256"
        },
        {
          "internalType": "uint256",
          "name": "_targetId",
          "type": "uint256"
        }
      ],
      "name": "visit",
      "outputs": [],
      "payable": false,
      "stateMutability": "nonpayable",
      "type": "function"
    },
    {
      "constant": false,
      "inputs": [],
      "name": "withdraw",
      "outputs": [],
      "payable": false,
      "stateMutability": "nonpayable",
      "type": "function"
    },
    {
      "constant": true,
      "inputs": [],
      "name": "checkBalance",
      "outputs": [
        {
          "internalType": "uint256",
          "name": "",
          "type": "uint256"
        }
      ],
      "payable": false,
      "stateMutability": "view",
      "type": "function"
    }
  ],
  "bytecode": "0x60806040526010600155600154600a0a6002556001600355662386f26fc10000600455600060055566038d7ea4c68000600a55655af3107a4000600d55655af3107a4000600e556000601055601460115560286012556040518060600160405280603c60ff168152602001605060ff168152602001606460ff1681525060139060036200008e929190620000d5565b50336000806101000a81548173ffffffffffffffffffffffffffffffffffffffff021916908373ffffffffffffffffffffffffffffffffffffffff16021790555062000147565b82600381019282156200010c579160200282015b828111156200010b578251829060ff16905591602001919060010190620000e9565b5b5090506200011b91906200011f565b5090565b6200014491905b808211156200014057600081600090555060010162000126565b5090565b90565b613f4b80620001576000396000f3fe6080604052600436106102515760003560e01c80638036671b11610139578063c39cbef1116100b6578063cda18e341161007a578063cda18e3414610ec5578063e45be8eb14610f14578063e8850adc14610f3f578063ecf3a02c14610f84578063f2fde38b14610ff0578063f59dfdfb1461104157610251565b8063c39cbef114610ca5578063c4114b1214610d35578063c6df962d14610d60578063c71daccb14610e5f578063ccf670f814610e8a57610251565b8063a9059cbb116100fd578063a9059cbb14610b00578063acb088be14610b5b578063b2e6ceeb14610b89578063c1bab34214610bc4578063c2a88ebe14610c6a57610251565b80638036671b1461098857806388332415146109c35780638da5cb5b146109ee57806395d89b4114610a4557806399c8d55614610ad557610251565b80633ccfd60b116101d25780635ea8cd12116101965780635ea8cd12146107255780635faf288014610760578063600ff8eb146107a55780636352211e1461086d57806370a08231146108e8578063710100c41461094d57610251565b80633ccfd60b146105d75780633f31811a146105ee578063439c960d1461067057806347c7e0341461069b57806358f48985146106e057610251565b80632c911176116102195780632c9111761461046c5780632e5bb6ff146104b157806337ce6382146104ec5780633aab8dc8146105315780633ad4c342146105ac57610251565b806306fdde0314610253578063095ea7b3146102e35780630ce90ec21461033e5780632bffa61a1461036c5780632c59a933146103b1575b005b34801561025f57600080fd5b5061026861107c565b6040518080602001828103825283818151815260200191508051906020019080838360005b838110156102a857808201518184015260208101905061028d565b50505050905090810190601f1680156102d55780820380516001836020036101000a031916815260200191505b509250505060405180910390f35b3480156102ef57600080fd5b5061033c6004803603604081101561030657600080fd5b81019080803573ffffffffffffffffffffffffffffffffffffffff169060200190929190803590602001909291905050506110b5565b005b61036a6004803603602081101561035457600080fd5b8101908080359060200190929190505050611170565b005b34801561037857600080fd5b506103af6004803603604081101561038f57600080fd5b810190808035906020019092919080359060200190929190505050611242565b005b61046a600480360360208110156103c757600080fd5b81019080803590602001906401000000008111156103e457600080fd5b8201836020820111156103f657600080fd5b8035906020019184600183028401116401000000008311171561041857600080fd5b91908080601f016020809104026020016040519081016040528093929190818152602001838380828437600081840152601f19601f8201169050808301925050505050505091929192905050506114bb565b005b34801561047857600080fd5b506104af6004803603604081101561048f57600080fd5b8101908080359060200190929190803590602001909291905050506115ac565b005b3480156104bd57600080fd5b506104ea600480360360208110156104d457600080fd5b8101908080359060200190929190505050611685565b005b3480156104f857600080fd5b5061052f6004803603604081101561050f57600080fd5b810190808035906020019092919080359060200190929190505050611751565b005b34801561053d57600080fd5b5061056a6004803603602081101561055457600080fd5b8101908080359060200190929190505050611aa0565b604051808273ffffffffffffffffffffffffffffffffffffffff1673ffffffffffffffffffffffffffffffffffffffff16815260200191505060405180910390f35b3480156105b857600080fd5b506105c1611ad3565b6040518082815260200191505060405180910390f35b3480156105e357600080fd5b506105ec611ad9565b005b3480156105fa57600080fd5b506106276004803603602081101561061157600080fd5b8101908080359060200190929190505050611c05565b604051808373ffffffffffffffffffffffffffffffffffffffff1673ffffffffffffffffffffffffffffffffffffffff1681526020018281526020019250505060405180910390f35b34801561067c57600080fd5b50610685611c49565b6040518082815260200191505060405180910390f35b3480156106a757600080fd5b506106de600480360360408110156106be57600080fd5b810190808035906020019092919080359060200190929190505050611c4f565b005b3480156106ec57600080fd5b506107236004803603604081101561070357600080fd5b810190808035906020019092919080359060200190929190505050611e2e565b005b34801561073157600080fd5b5061075e6004803603602081101561074857600080fd5b810190808035906020019092919050505061214c565b005b34801561076c57600080fd5b506107a36004803603604081101561078357600080fd5b810190808035906020019092919080359060200190929190505050612218565b005b3480156107b157600080fd5b5061086b600480360360208110156107c857600080fd5b81019080803590602001906401000000008111156107e557600080fd5b8201836020820111156107f757600080fd5b8035906020019184600183028401116401000000008311171561081957600080fd5b91908080601f016020809104026020016040519081016040528093929190818152602001838380828437600081840152601f19601f82011690508083019250505050505050919291929050505061233e565b005b34801561087957600080fd5b506108a66004803603602081101561089057600080fd5b81019080803590602001909291905050506123b4565b604051808273ffffffffffffffffffffffffffffffffffffffff1673ffffffffffffffffffffffffffffffffffffffff16815260200191505060405180910390f35b3480156108f457600080fd5b506109376004803603602081101561090b57600080fd5b81019080803573ffffffffffffffffffffffffffffffffffffffff1690602001909291905050506123f1565b6040518082815260200191505060405180910390f35b34801561095957600080fd5b506109866004803603602081101561097057600080fd5b810190808035906020019092919050505061243a565b005b34801561099457600080fd5b506109c1600480360360208110156109ab57600080fd5b8101908080359060200190929190505050612506565b005b3480156109cf57600080fd5b506109d86125d2565b6040518082815260200191505060405180910390f35b3480156109fa57600080fd5b50610a036125d8565b604051808273ffffffffffffffffffffffffffffffffffffffff1673ffffffffffffffffffffffffffffffffffffffff16815260200191505060405180910390f35b348015610a5157600080fd5b50610a5a6125fd565b6040518080602001828103825283818151815260200191508051906020019080838360005b83811015610a9a578082015181840152602081019050610a7f565b50505050905090810190601f168015610ac75780820380516001836020036101000a031916815260200191505b509250505060405180910390f35b348015610ae157600080fd5b50610aea612636565b6040518082815260200191505060405180910390f35b348015610b0c57600080fd5b50610b5960048036036040811015610b2357600080fd5b81019080803573ffffffffffffffffffffffffffffffffffffffff1690602001909291908035906020019092919050505061263c565b005b610b8760048036036020811015610b7157600080fd5b810190808035906020019092919050505061264b565b005b348015610b9557600080fd5b50610bc260048036036020811015610bac57600080fd5b810190808035906020019092919050505061288e565b005b348015610bd057600080fd5b50610c1360048036036020811015610be757600080fd5b81019080803573ffffffffffffffffffffffffffffffffffffffff16906020019092919050505061297e565b6040518080602001828103825283818151815260200191508051906020019060200280838360005b83811015610c56578082015181840152602081019050610c3b565b505050509050019250505060405180910390f35b348015610c7657600080fd5b50610ca360048036036020811015610c8d57600080fd5b8101908080359060200190929190505050612aab565b005b348015610cb157600080fd5b50610d3360048036036040811015610cc857600080fd5b810190808035906020019092919080359060200190640100000000811115610cef57600080fd5b820183602082011115610d0157600080fd5b80359060200191846001830284011164010000000083111715610d2357600080fd5b9091929391929390505050612b77565b005b348015610d4157600080fd5b50610d4a612ca9565b6040518082815260200191505060405180910390f35b348015610d6c57600080fd5b50610d9960048036036020811015610d8357600080fd5b8101908080359060200190929190505050612caf565b60405180806020018781526020018661ffff1661ffff1681526020018561ffff1661ffff1681526020018463ffffffff1663ffffffff1681526020018363ffffffff1663ffffffff168152602001828103825288818151815260200191508051906020019080838360005b83811015610e1f578082015181840152602081019050610e04565b50505050905090810190601f168015610e4c5780820380516001836020036101000a031916815260200191505b5097505050505050505060405180910390f35b348015610e6b57600080fd5b50610e74612dcc565b6040518082815260200191505060405180910390f35b348015610e9657600080fd5b50610ec360048036036020811015610ead57600080fd5b8101908080359060200190929190505050612e96565b005b348015610ed157600080fd5b50610efe60048036036020811015610ee857600080fd5b8101908080359060200190929190505050612f62565b6040518082815260200191505060405180910390f35b348015610f2057600080fd5b50610f29612f7a565b6040518082815260200191505060405180910390f35b348015610f4b57600080fd5b50610f8260048036036040811015610f6257600080fd5b810190808035906020019092919080359060200190929190505050612f80565b005b348015610f9057600080fd5b50610f99613186565b6040518080602001828103825283818151815260200191508051906020019060200280838360005b83811015610fdc578082015181840152602081019050610fc1565b505050509050019250505060405180910390f35b348015610ffc57600080fd5b5061103f6004803603602081101561101357600080fd5b81019080803573ffffffffffffffffffffffffffffffffffffffff16906020019092919050505061322b565b005b34801561104d57600080fd5b5061107a6004803603602081101561106457600080fd5b810190808035906020019092919050505061344e565b005b6040518060400160405280600d81526020017f4f6e654543727970746f4361740000000000000000000000000000000000000081525081565b81600b600083815260200190815260200160002060006101000a81548173ffffffffffffffffffffffffffffffffffffffff021916908373ffffffffffffffffffffffffffffffffffffffff1602179055508173ffffffffffffffffffffffffffffffffffffffff163373ffffffffffffffffffffffffffffffffffffffff167f8c5be1e5ebec7d5bd14f71427d1e84f3dd0314c0f7b2291e5b200ac8c7c3b925836040518082815260200191505060405180910390a35050565b600a543410156111e8576040517f08c379a000000000000000000000000000000000000000000000000000000000815260040180806020018281038252601b8152602001807f596f75722062616c616e6365206973206e6f7420656e6f75676821000000000081525060200191505060405180910390fd5b600681815481106111f557fe5b9060005260206000209060040201600201600481819054906101000a900463ffffffff168092919060010191906101000a81548163ffffffff021916908363ffffffff1602179055505050565b816007600082815260200190815260200160002060009054906101000a900473ffffffffffffffffffffffffffffffffffffffff1673ffffffffffffffffffffffffffffffffffffffff163373ffffffffffffffffffffffffffffffffffffffff16146112ae57600080fd5b6000600684815481106112bd57fe5b906000526020600020906004020190506000600684815481106112dc57fe5b90600052602060002090600402019050600181600301600087815260200190815260200160002060010154101561137b576040517f08c379a000000000000000000000000000000000000000000000000000000000815260040180806020018281038252601c8152602001807f596f7520686176656e272074206265636f6d6520667269656e6473210000000081525060200191505060405180910390fd5b600061138760646135af565b905060058360020160049054906101000a900463ffffffff1663ffffffff1610156113f657600060136000600381106113bc57fe5b015490508082116113f057826003016000888152602001908152602001600020600101600081548092919060010191905055505b506114aa565b600f8360020160049054906101000a900463ffffffff1663ffffffff161015611463576000601360016003811061142957fe5b0154905080821161145d57826003016000888152602001908152602001600020600101600081548092919060010191905055505b506114a9565b6000601360026003811061147357fe5b015490508082116114a757826003016000888152602001908152602001600020600101600081548092919060010191905055505b505b5b6114b38361363e565b505050505050565b6000600860003373ffffffffffffffffffffffffffffffffffffffff1673ffffffffffffffffffffffffffffffffffffffff168152602001908152602001600020541161150757600080fd5b60045434101561157f576040517f08c379a000000000000000000000000000000000000000000000000000000000815260040180806020018281038252601b8152602001807f596f75722062616c616e6365206973206e6f7420656e6f75676821000000000081525060200191505060405180910390fd5b600061158a82613680565b90506001600a828161159857fe5b0682030190506115a88282613711565b5050565b6000809054906101000a900473ffffffffffffffffffffffffffffffffffffffff1673ffffffffffffffffffffffffffffffffffffffff163373ffffffffffffffffffffffffffffffffffffffff161461166e576040517f08c379a00000000000000000000000000000000000000000000000000000000081526004018080602001828103825260138152602001807f4d75737420636f6e7472616374206f776e65720000000000000000000000000081525060200191505060405180910390fd5b816013826003811061167c57fe5b01819055505050565b6000809054906101000a900473ffffffffffffffffffffffffffffffffffffffff1673ffffffffffffffffffffffffffffffffffffffff163373ffffffffffffffffffffffffffffffffffffffff1614611747576040517f08c379a00000000000000000000000000000000000000000000000000000000081526004018080602001828103825260138152602001807f4d75737420636f6e7472616374206f776e65720000000000000000000000000081525060200191505060405180910390fd5b80600d8190555050565b816007600082815260200190815260200160002060009054906101000a900473ffffffffffffffffffffffffffffffffffffffff1673ffffffffffffffffffffffffffffffffffffffff163373ffffffffffffffffffffffffffffffffffffffff16146117bd57600080fd5b6000600684815481106117cc57fe5b906000526020600020906004020190506000600684815481106117eb57fe5b9060005260206000209060040201905060115481600301600087815260200190815260200160002060010154101561188b576040517f08c379a000000000000000000000000000000000000000000000000000000000815260040180806020018281038252601c8152602001807f546865206361747320617265206e6f7420736f20636c6f7365203a280000000081525060200191505060405180910390fd5b60125481600301600087815260200190815260200160002060010154106119395781600201600481819054906101000a900463ffffffff168092919060010191906101000a81548163ffffffff021916908363ffffffff1602179055505080600201600481819054906101000a900463ffffffff168092919060010191906101000a81548163ffffffff021916908363ffffffff160217905550506119348582600101546139fc565b611a99565b8060020160049054906101000a900463ffffffff1663ffffffff168260020160049054906101000a900463ffffffff1663ffffffff16106119d757600061198060646135af565b9050603281111561199e576119998683600101546139fc565b6119d1565b6119a78361363e565b81600301600087815260200190815260200160002060010160008154809291906001900391905055505b50611a98565b60006119e360646135af565b90506032811115611a25576119f78361363e565b8160030160008781526020019081526020016000206001016000815480929190600190039190505550611a96565b611a2e8361363e565b82600201600481819054906101000a900463ffffffff16809291906001900391906101000a81548163ffffffff021916908363ffffffff1602179055505081600301600087815260200190815260200160002060010160008154809291906001900391905055505b505b5b5050505050565b60076020528060005260406000206000915054906101000a900473ffffffffffffffffffffffffffffffffffffffff1681565b60045481565b6000809054906101000a900473ffffffffffffffffffffffffffffffffffffffff1673ffffffffffffffffffffffffffffffffffffffff163373ffffffffffffffffffffffffffffffffffffffff1614611b9b576040517f08c379a00000000000000000000000000000000000000000000000000000000081526004018080602001828103825260138152602001807f4d75737420636f6e7472616374206f776e65720000000000000000000000000081525060200191505060405180910390fd5b6000809054906101000a900473ffffffffffffffffffffffffffffffffffffffff1673ffffffffffffffffffffffffffffffffffffffff166108fc479081150290604051600060405180830381858888f19350505050158015611c02573d6000803e3d6000fd5b50565b600c6020528060005260406000206000915090508060000160009054906101000a900473ffffffffffffffffffffffffffffffffffffffff16908060010154905082565b60035481565b816007600082815260200190815260200160002060009054906101000a900473ffffffffffffffffffffffffffffffffffffffff1673ffffffffffffffffffffffffffffffffffffffff163373ffffffffffffffffffffffffffffffffffffffff1614611cbb57600080fd5b600e54600d5401821015611d37576040517f08c379a00000000000000000000000000000000000000000000000000000000081526004018080602001828103825260168152602001807f596f757220707269636520697320746f6f206c6f77210000000000000000000081525060200191505060405180910390fd5b60405180604001604052803373ffffffffffffffffffffffffffffffffffffffff16815260200183815250600c600085815260200190815260200160002060008201518160000160006101000a81548173ffffffffffffffffffffffffffffffffffffffff021916908373ffffffffffffffffffffffffffffffffffffffff16021790555060208201518160010155905050611ddf6001600f54613b8690919063ffffffff16565b600f819055503373ffffffffffffffffffffffffffffffffffffffff16837fb8da542bb4b1f331b13c07a061e10641814cd3c44a1f525cfbbb1936bfc9df0960405160405180910390a3505050565b816007600082815260200190815260200160002060009054906101000a900473ffffffffffffffffffffffffffffffffffffffff1673ffffffffffffffffffffffffffffffffffffffff163373ffffffffffffffffffffffffffffffffffffffff1614611e9a57600080fd5b600160068481548110611ea957fe5b906000526020600020906004020160020160029054906101000a900461ffff1661ffff161015611f41576040517f08c379a000000000000000000000000000000000000000000000000000000000815260040180806020018281038252601c8152602001807f596f7520646f6e2774206861766520616e79206861697242616c6c210000000081525060200191505060405180910390fd5b600060068481548110611f5057fe5b90600052602060002090600402019050600060068481548110611f6f57fe5b90600052602060002090600402019050600181600301600087815260200190815260200160002060010154101561200e576040517f08c379a000000000000000000000000000000000000000000000000000000000815260040180806020018281038252601c8152602001807f596f7520686176656e272074206265636f6d6520667269656e6473210000000081525060200191505060405180910390fd5b81600201600281819054906101000a900461ffff16809291906001900391906101000a81548161ffff021916908361ffff1602179055505080600201600281819054906101000a900461ffff168092919060010191906101000a81548161ffff021916908361ffff1602179055505080600301600086815260200190815260200160002060010160008154809291906001019190505550806003016000868152602001908152602001600020600101600081548092919060010191905055508060030160008681526020019081526020016000206001016000815480929190600101919050555080600301600086815260200190815260200160002060010160008154809291906001019190505550806003016000868152602001908152602001600020600101600081548092919060010191905055505050505050565b6000809054906101000a900473ffffffffffffffffffffffffffffffffffffffff1673ffffffffffffffffffffffffffffffffffffffff163373ffffffffffffffffffffffffffffffffffffffff161461220e576040517f08c379a00000000000000000000000000000000000000000000000000000000081526004018080602001828103825260138152602001807f4d75737420636f6e7472616374206f776e65720000000000000000000000000081525060200191505060405180910390fd5b80600e8190555050565b601482816006828154811061222957fe5b906000526020600020906004020160020160049054906101000a900463ffffffff1663ffffffff1610156122a8576040517f08c379a0000000000000000000000000000000000000000000000000000000008152600401808060200182810382526029815260200180613eee6029913960400191505060405180910390fd5b836007600082815260200190815260200160002060009054906101000a900473ffffffffffffffffffffffffffffffffffffffff1673ffffffffffffffffffffffffffffffffffffffff163373ffffffffffffffffffffffffffffffffffffffff161461231457600080fd5b836006868154811061232257fe5b9060005260206000209060040201600101819055505050505050565b6000600860003373ffffffffffffffffffffffffffffffffffffffff1673ffffffffffffffffffffffffffffffffffffffff168152602001908152602001600020541461238a57600080fd5b600061239582613680565b9050600a81816123a157fe5b06810390506123b08282613711565b5050565b60006007600083815260200190815260200160002060009054906101000a900473ffffffffffffffffffffffffffffffffffffffff169050919050565b6000600860008373ffffffffffffffffffffffffffffffffffffffff1673ffffffffffffffffffffffffffffffffffffffff168152602001908152602001600020549050919050565b6000809054906101000a900473ffffffffffffffffffffffffffffffffffffffff1673ffffffffffffffffffffffffffffffffffffffff163373ffffffffffffffffffffffffffffffffffffffff16146124fc576040517f08c379a00000000000000000000000000000000000000000000000000000000081526004018080602001828103825260138152602001807f4d75737420636f6e7472616374206f776e65720000000000000000000000000081525060200191505060405180910390fd5b8060048190555050565b6000809054906101000a900473ffffffffffffffffffffffffffffffffffffffff1673ffffffffffffffffffffffffffffffffffffffff163373ffffffffffffffffffffffffffffffffffffffff16146125c8576040517f08c379a00000000000000000000000000000000000000000000000000000000081526004018080602001828103825260138152602001807f4d75737420636f6e7472616374206f776e65720000000000000000000000000081525060200191505060405180910390fd5b8060118190555050565b60055481565b6000809054906101000a900473ffffffffffffffffffffffffffffffffffffffff1681565b6040518060400160405280600381526020017f4f4343000000000000000000000000000000000000000000000000000000000081525081565b600d5481565b612647338383613ba2565b5050565b600c6000828152602001908152602001600020600101543410156126d7576040517f08c379a00000000000000000000000000000000000000000000000000000000081526004018080602001828103825260168152602001807f596f75206e65656420746f20616464207072696365210000000000000000000081525060200191505060405180910390fd5b612718600c600083815260200190815260200160002060000160009054906101000a900473ffffffffffffffffffffffffffffffffffffffff163383613ba2565b600c600082815260200190815260200160002060000160009054906101000a900473ffffffffffffffffffffffffffffffffffffffff1673ffffffffffffffffffffffffffffffffffffffff166108fc600d5434039081150290604051600060405180830381858888f19350505050158015612798573d6000803e3d6000fd5b50600c6000828152602001908152602001600020600080820160006101000a81549073ffffffffffffffffffffffffffffffffffffffff0219169055600182016000905550506127f46001600f54613d8a90919063ffffffff16565b600f81905550600c600082815260200190815260200160002060000160009054906101000a900473ffffffffffffffffffffffffffffffffffffffff1673ffffffffffffffffffffffffffffffffffffffff163373ffffffffffffffffffffffffffffffffffffffff16827f1221b00211799396a5d45f55ca4714aeb1513588a2a05affce83ed5314a6933660405160405180910390a450565b3373ffffffffffffffffffffffffffffffffffffffff16600b600083815260200190815260200160002060009054906101000a900473ffffffffffffffffffffffffffffffffffffffff1673ffffffffffffffffffffffffffffffffffffffff1614612962576040517f08c379a00000000000000000000000000000000000000000000000000000000081526004018080602001828103825260158152602001807f596f7520617265206e6f7420617070726f76656421000000000000000000000081525060200191505060405180910390fd5b600061296d826123b4565b905061297a813384613ba2565b5050565b606080600860008473ffffffffffffffffffffffffffffffffffffffff1673ffffffffffffffffffffffffffffffffffffffff168152602001908152602001600020546040519080825280602002602001820160405280156129ef5781602001602082028038833980820191505090505b509050600080905060008090505b600680549050811015612aa0578473ffffffffffffffffffffffffffffffffffffffff166007600083815260200190815260200160002060009054906101000a900473ffffffffffffffffffffffffffffffffffffffff1673ffffffffffffffffffffffffffffffffffffffff161415612a935780838381518110612a7e57fe5b60200260200101818152505081806001019250505b80806001019150506129fd565b508192505050919050565b6000809054906101000a900473ffffffffffffffffffffffffffffffffffffffff1673ffffffffffffffffffffffffffffffffffffffff163373ffffffffffffffffffffffffffffffffffffffff1614612b6d576040517f08c379a00000000000000000000000000000000000000000000000000000000081526004018080602001828103825260138152602001807f4d75737420636f6e7472616374206f776e65720000000000000000000000000081525060200191505060405180910390fd5b8060128190555050565b6002838160068281548110612b8857fe5b906000526020600020906004020160020160049054906101000a900463ffffffff1663ffffffff161015612c07576040517f08c379a0000000000000000000000000000000000000000000000000000000008152600401808060200182810382526029815260200180613eee6029913960400191505060405180910390fd5b846007600082815260200190815260200160002060009054906101000a900473ffffffffffffffffffffffffffffffffffffffff1673ffffffffffffffffffffffffffffffffffffffff163373ffffffffffffffffffffffffffffffffffffffff1614612c7357600080fd5b848460068881548110612c8257fe5b90600052602060002090600402016000019190612ca0929190613dc8565b50505050505050565b600a5481565b60068181548110612cbc57fe5b9060005260206000209060040201600091509050806000018054600181600116156101000203166002900480601f016020809104026020016040519081016040528092919081815260200182805460018160011615610100020316600290048015612d685780601f10612d3d57610100808354040283529160200191612d68565b820191906000526020600020905b815481529060010190602001808311612d4b57829003601f168201915b5050505050908060010154908060020160009054906101000a900461ffff16908060020160029054906101000a900461ffff16908060020160049054906101000a900463ffffffff16908060020160089054906101000a900463ffffffff16905086565b60008060009054906101000a900473ffffffffffffffffffffffffffffffffffffffff1673ffffffffffffffffffffffffffffffffffffffff163373ffffffffffffffffffffffffffffffffffffffff1614612e90576040517f08c379a00000000000000000000000000000000000000000000000000000000081526004018080602001828103825260138152602001807f4d75737420636f6e7472616374206f776e65720000000000000000000000000081525060200191505060405180910390fd5b47905090565b6000809054906101000a900473ffffffffffffffffffffffffffffffffffffffff1673ffffffffffffffffffffffffffffffffffffffff163373ffffffffffffffffffffffffffffffffffffffff1614612f58576040517f08c379a00000000000000000000000000000000000000000000000000000000081526004018080602001828103825260138152602001807f4d75737420636f6e7472616374206f776e65720000000000000000000000000081525060200191505060405180910390fd5b80600a8190555050565b60096020528060005260406000206000915090505481565b600e5481565b6002828160068281548110612f9157fe5b906000526020600020906004020160020160049054906101000a900463ffffffff1663ffffffff161015613010576040517f08c379a0000000000000000000000000000000000000000000000000000000008152600401808060200182810382526029815260200180613eee6029913960400191505060405180910390fd5b836007600082815260200190815260200160002060009054906101000a900473ffffffffffffffffffffffffffffffffffffffff1673ffffffffffffffffffffffffffffffffffffffff163373ffffffffffffffffffffffffffffffffffffffff161461307c57600080fd5b60006006868154811061308b57fe5b906000526020600020906004020190506000600686815481106130aa57fe5b906000526020600020906004020190506040518060400160405280878152602001600181525082600301600088815260200190815260200160002060008201518160000155602082015181600101559050506040518060400160405280888152602001600181525081600301600089815260200190815260200160002060008201518160000155602082015181600101559050507fc1dd44fffdefc7c00140d74867fa62bc1c7f6363f84391ccf362182d8b7c6ff08787604051808381526020018281526020019250505060405180910390a150505050505050565b606080600f546040519080825280602002602001820160405280156131ba5781602001602082028038833980820191505090505b509050600080905060008090505b600680549050811015613222576000600c60008381526020019081526020016000206001015414613215578083838151811061320057fe5b60200260200101818152505081806001019250505b80806001019150506131c8565b50819250505090565b6000809054906101000a900473ffffffffffffffffffffffffffffffffffffffff1673ffffffffffffffffffffffffffffffffffffffff163373ffffffffffffffffffffffffffffffffffffffff16146132ed576040517f08c379a00000000000000000000000000000000000000000000000000000000081526004018080602001828103825260138152602001807f4d75737420636f6e7472616374206f776e65720000000000000000000000000081525060200191505060405180910390fd5b600073ffffffffffffffffffffffffffffffffffffffff168173ffffffffffffffffffffffffffffffffffffffff161415613390576040517f08c379a00000000000000000000000000000000000000000000000000000000081526004018080602001828103825260138152602001807f4d75737420636f6e7472616374206f776e65720000000000000000000000000081525060200191505060405180910390fd5b8073ffffffffffffffffffffffffffffffffffffffff166000809054906101000a900473ffffffffffffffffffffffffffffffffffffffff1673ffffffffffffffffffffffffffffffffffffffff167f8be0079c531659141344cd1fd0a4f28419497f9722a3daafe3b4186f6b6457e060405160405180910390a3806000806101000a81548173ffffffffffffffffffffffffffffffffffffffff021916908373ffffffffffffffffffffffffffffffffffffffff16021790555050565b806007600082815260200190815260200160002060009054906101000a900473ffffffffffffffffffffffffffffffffffffffff1673ffffffffffffffffffffffffffffffffffffffff163373ffffffffffffffffffffffffffffffffffffffff16146134ba57600080fd5b6000600683815481106134c957fe5b906000526020600020906004020190506134e281613da1565b6134eb57600080fd5b61351260016009600086815260200190815260200160002054613b8690919063ffffffff16565b60096000858152602001908152602001600020819055506135328161363e565b6000600160096000868152602001908152602001600020548161355157fe5b0614156135aa576006838154811061356557fe5b9060005260206000209060040201600201600281819054906101000a900461ffff168092919060010191906101000a81548161ffff021916908361ffff160217905550505b505050565b6000601060008154809291906001019190505550814233601054604051602001808481526020018373ffffffffffffffffffffffffffffffffffffffff1673ffffffffffffffffffffffffffffffffffffffff1660601b815260140182815260200193505050506040516020818303038152906040528051906020012060001c8161363657fe5b069050919050565b62015180600354420163ffffffff168161365457fe5b066003544201038160020160086101000a81548163ffffffff021916908363ffffffff16021790555050565b600060025482426040516020018083805190602001908083835b602083106136bd578051825260208201915060208101905060208303925061369a565b6001836020036101000a038019825116818451168082178552505050505050905001828152602001925050506040516020818303038152906040528051906020012060001c8161370957fe5b069050919050565b6000600160066040518060c00160405280868152602001858152602001600061ffff168152602001600061ffff168152602001600163ffffffff168152602001600063ffffffff168152509080600181540180825580915050906001820390600052602060002090600402016000909192909190915060008201518160000190805190602001906137a3929190613e48565b506020820151816001015560408201518160020160006101000a81548161ffff021916908361ffff16021790555060608201518160020160026101000a81548161ffff021916908361ffff16021790555060808201518160020160046101000a81548163ffffffff021916908363ffffffff16021790555060a08201518160020160086101000a81548163ffffffff021916908363ffffffff1602179055505050039050336007600083815260200190815260200160002060006101000a81548173ffffffffffffffffffffffffffffffffffffffff021916908373ffffffffffffffffffffffffffffffffffffffff1602179055506138ec6001600860003373ffffffffffffffffffffffffffffffffffffffff1673ffffffffffffffffffffffffffffffffffffffff16815260200190815260200160002054613b8690919063ffffffff16565b600860003373ffffffffffffffffffffffffffffffffffffffff1673ffffffffffffffffffffffffffffffffffffffff168152602001908152602001600020819055506139456001600554613b8690919063ffffffff16565b6005819055507fa6d701777246a1c406210d4b4af8683b00ad9a41b469546e5fb3e91c5e65808c8184846040518084815260200180602001838152602001828103825284818151815260200191508051906020019080838360005b838110156139bb5780820151818401526020810190506139a0565b50505050905090810190601f1680156139e85780820380516001836020036101000a031916815260200191505b5094505050505060405180910390a1505050565b816007600082815260200190815260200160002060009054906101000a900473ffffffffffffffffffffffffffffffffffffffff1673ffffffffffffffffffffffffffffffffffffffff163373ffffffffffffffffffffffffffffffffffffffff1614613a6857600080fd5b600060068481548110613a7757fe5b90600052602060002090600402019050613a9081613da1565b613b02576040517f08c379a00000000000000000000000000000000000000000000000000000000081526004018080602001828103825260198152602001807f596f75722063617420697320636f6f6c696e6720646f776e210000000000000081525060200191505060405180910390fd5b6002548381613b0d57fe5b069250600060028483600101540181613b2257fe5b0490506009600a8281613b3157fe5b068203019050613b766040518060400160405280600681526020017f4e6f4e616d65000000000000000000000000000000000000000000000000000081525082613711565b613b7f8261363e565b5050505050565b600080828401905083811015613b9857fe5b8091505092915050565b613bf56001600860008573ffffffffffffffffffffffffffffffffffffffff1673ffffffffffffffffffffffffffffffffffffffff16815260200190815260200160002054613b8690919063ffffffff16565b600860008473ffffffffffffffffffffffffffffffffffffffff1673ffffffffffffffffffffffffffffffffffffffff16815260200190815260200160002081905550613c8b6001600860008673ffffffffffffffffffffffffffffffffffffffff1673ffffffffffffffffffffffffffffffffffffffff16815260200190815260200160002054613d8a90919063ffffffff16565b600860008573ffffffffffffffffffffffffffffffffffffffff1673ffffffffffffffffffffffffffffffffffffffff16815260200190815260200160002081905550816007600083815260200190815260200160002060006101000a81548173ffffffffffffffffffffffffffffffffffffffff021916908373ffffffffffffffffffffffffffffffffffffffff1602179055508173ffffffffffffffffffffffffffffffffffffffff168373ffffffffffffffffffffffffffffffffffffffff167fddf252ad1be2c89b69c2b068fc378daa952ba7f163c4a11628f55a4df523b3ef836040518082815260200191505060405180910390a3505050565b600082821115613d9657fe5b818303905092915050565b60008160020160089054906101000a900463ffffffff1663ffffffff164210159050919050565b828054600181600116156101000203166002900490600052602060002090601f016020900481019282601f10613e0957803560ff1916838001178555613e37565b82800160010185558215613e37579182015b82811115613e36578235825591602001919060010190613e1b565b5b509050613e449190613ec8565b5090565b828054600181600116156101000203166002900490600052602060002090601f016020900481019282601f10613e8957805160ff1916838001178555613eb7565b82800160010185558215613eb7579182015b82811115613eb6578251825591602001919060010190613e9b565b5b509050613ec49190613ec8565b5090565b613eea91905b80821115613ee6576000816000905550600101613ece565b5090565b9056fe596f7572206c6576656c206973206e6f7420656e6f7567682c20706c65617365207570677261646521a265627a7a72315820eb0f9ff2e7d40da457038a3b870239bbae207d6cbefa5e3cc50fb7bf1209781264736f6c63430005100032",
  "source": "pragma solidity >=0.4.22 <0.9.0;\n\nimport \"./CatMarket.sol\";\nimport \"./CatLove.sol\";\nimport \"./CatFeeding.sol\";\nimport \"./CatFactory2.sol\";\n\n\ncontract CatCore is CatFactory, CatMarket, CatFeeding, CatLove {\n    string public constant name = \"OneECryptoCat\";\n    string public constant symbol = \"OCC\";\n \n    function() external payable {\n\n    }\n\n    function withdraw() external onlyOwner {\n        owner.transfer(address(this).balance);\n    }\n\n    function checkBalance() external view onlyOwner returns(uint) {\n        return address(this).balance;\n    }\n\n}",
  "sourcePath": "/Users/zhangmengdie/Desktop/meow meow-new/contracts/CatCore.sol",
  "compiler": {
    "name": "solc",
    "version": "0.5.16+commit.9c3226ce.Emscripten.clang"
  },
  "schemaVersion": "3.4.7",
  "updatedAt": "2022-05-01T05:47:28.652Z",
  "devdoc": {
    "methods": {
      "transferOwnership(address)": {
        "details": "Allows the current owner to transfer control of the contract to a newOwner.",
        "params": {
          "newOwner": "The address to transfer ownership to."
        }
      }
    }
  },
  "userdoc": {
    "methods": {}
  }
}