{
  "contractName": "CatHelper",
  "abi": [
    {
      "anonymous": false,
      "inputs": [
        {
          "indexed": false,
          "internalType": "uint256",
          "name": "catId",
          "type": "uint256"
        },
        {
          "indexed": false,
          "internalType": "string",
          "name": "name",
          "type": "string"
        },
        {
          "indexed": false,
          "internalType": "uint256",
          "name": "dna",
          "type": "uint256"
        }
      ],
      "name": "NewCat",
      "type": "event"
    },
    {
      "anonymous": false,
      "inputs": [
        {
          "indexed": true,
          "internalType": "address",
          "name": "previousOwner",
          "type": "address"
        },
        {
          "indexed": true,
          "internalType": "address",
          "name": "newOwner",
          "type": "address"
        }
      ],
      "name": "OwnershipTransferred",
      "type": "event"
    },
    {
      "constant": false,
      "inputs": [
        {
          "internalType": "string",
          "name": "_name",
          "type": "string"
        }
      ],
      "name": "buyRandomCat",
      "outputs": [],
      "payable": true,
      "stateMutability": "payable",
      "type": "function"
    },
    {
      "constant": true,
      "inputs": [],
      "name": "catCount",
      "outputs": [
        {
          "internalType": "uint256",
          "name": "",
          "type": "uint256"
        }
      ],
      "payable": false,
      "stateMutability": "view",
      "type": "function"
    },
    {
      "constant": true,
      "inputs": [
        {
          "internalType": "uint256",
          "name": "",
          "type": "uint256"
        }
      ],
      "name": "catFeedTimes",
      "outputs": [
        {
          "internalType": "uint256",
          "name": "",
          "type": "uint256"
        }
      ],
      "payable": false,
      "stateMutability": "view",
      "type": "function"
    },
    {
      "constant": true,
      "inputs": [],
      "name": "catPrice",
      "outputs": [
        {
          "internalType": "uint256",
          "name": "",
          "type": "uint256"
        }
      ],
      "payable": false,
      "stateMutability": "view",
      "type": "function"
    },
    {
      "constant": true,
      "inputs": [
        {
          "internalType": "uint256",
          "name": "",
          "type": "uint256"
        }
      ],
      "name": "catToOwner",
      "outputs": [
        {
          "internalType": "address",
          "name": "",
          "type": "address"
        }
      ],
      "payable": false,
      "stateMutability": "view",
      "type": "function"
    },
    {
      "constant": true,
      "inputs": [
        {
          "internalType": "uint256",
          "name": "",
          "type": "uint256"
        }
      ],
      "name": "cats",
      "outputs": [
        {
          "internalType": "string",
          "name": "name",
          "type": "string"
        },
        {
          "internalType": "uint256",
          "name": "dna",
          "type": "uint256"
        },
        {
          "internalType": "uint16",
          "name": "winCount",
          "type": "uint16"
        },
        {
          "internalType": "uint16",
          "name": "hairBall",
          "type": "uint16"
        },
        {
          "internalType": "uint32",
          "name": "level",
          "type": "uint32"
        },
        {
          "internalType": "uint32",
          "name": "readyTime",
          "type": "uint32"
        }
      ],
      "payable": false,
      "stateMutability": "view",
      "type": "function"
    },
    {
      "constant": false,
      "inputs": [
        {
          "internalType": "uint256",
          "name": "price",
          "type": "uint256"
        }
      ],
      "name": "changeCatPrice",
      "outputs": [],
      "payable": false,
      "stateMutability": "nonpayable",
      "type": "function"
    },
    {
      "constant": true,
      "inputs": [],
      "name": "coolingTime",
      "outputs": [
        {
          "internalType": "uint256",
          "name": "",
          "type": "uint256"
        }
      ],
      "payable": false,
      "stateMutability": "view",
      "type": "function"
    },
    {
      "constant": false,
      "inputs": [
        {
          "internalType": "string",
          "name": "_name",
          "type": "string"
        }
      ],
      "name": "createRandomCat",
      "outputs": [],
      "payable": false,
      "stateMutability": "nonpayable",
      "type": "function"
    },
    {
      "constant": true,
      "inputs": [],
      "name": "levelUpFee",
      "outputs": [
        {
          "internalType": "uint256",
          "name": "",
          "type": "uint256"
        }
      ],
      "payable": false,
      "stateMutability": "view",
      "type": "function"
    },
    {
      "constant": true,
      "inputs": [],
      "name": "owner",
      "outputs": [
        {
          "internalType": "address payable",
          "name": "",
          "type": "address"
        }
      ],
      "payable": false,
      "stateMutability": "view",
      "type": "function"
    },
    {
      "constant": false,
      "inputs": [
        {
          "internalType": "address payable",
          "name": "newOwner",
          "type": "address"
        }
      ],
      "name": "transferOwnership",
      "outputs": [],
      "payable": false,
      "stateMutability": "nonpayable",
      "type": "function"
    },
    {
      "constant": false,
      "inputs": [
        {
          "internalType": "uint256",
          "name": "_fee",
          "type": "uint256"
        }
      ],
      "name": "setLevelUpFee",
      "outputs": [],
      "payable": false,
      "stateMutability": "nonpayable",
      "type": "function"
    },
    {
      "constant": false,
      "inputs": [
        {
          "internalType": "uint256",
          "name": "_catId",
          "type": "uint256"
        }
      ],
      "name": "levelUp",
      "outputs": [],
      "payable": true,
      "stateMutability": "payable",
      "type": "function"
    },
    {
      "constant": false,
      "inputs": [
        {
          "internalType": "uint256",
          "name": "_catId",
          "type": "uint256"
        },
        {
          "internalType": "string",
          "name": "_newName",
          "type": "string"
        }
      ],
      "name": "changeName",
      "outputs": [],
      "payable": false,
      "stateMutability": "nonpayable",
      "type": "function"
    },
    {
      "constant": false,
      "inputs": [
        {
          "internalType": "uint256",
          "name": "_catId",
          "type": "uint256"
        },
        {
          "internalType": "uint256",
          "name": "dna",
          "type": "uint256"
        }
      ],
      "name": "changeDna",
      "outputs": [],
      "payable": false,
      "stateMutability": "nonpayable",
      "type": "function"
    },
    {
      "constant": true,
      "inputs": [
        {
          "internalType": "address",
          "name": "_owner",
          "type": "address"
        }
      ],
      "name": "getCatsByOwner",
      "outputs": [
        {
          "internalType": "uint256[]",
          "name": "",
          "type": "uint256[]"
        }
      ],
      "payable": false,
      "stateMutability": "view",
      "type": "function"
    }
  ],
  "bytecode": "0x60806040526010600155600154600a0a6002556001600355662386f26fc10000600455600060055566038d7ea4c68000600a55336000806101000a81548173ffffffffffffffffffffffffffffffffffffffff021916908373ffffffffffffffffffffffffffffffffffffffff1602179055506117fb806100816000396000f3fe6080604052600436106100fe5760003560e01c80638833241511610095578063c4114b1211610064578063c4114b12146105bd578063c6df962d146105e8578063ccf670f8146106e7578063cda18e3414610722578063f2fde38b14610771576100fe565b806388332415146104055780638da5cb5b14610430578063c1bab34214610487578063c39cbef11461052d576100fe565b8063439c960d116100d1578063439c960d146102925780635faf2880146102bd578063600ff8eb14610302578063710100c4146103ca576100fe565b80630ce90ec2146101035780632c59a933146101315780633aab8dc8146101ec5780633ad4c34214610267575b600080fd5b61012f6004803603602081101561011957600080fd5b81019080803590602001909291905050506107c2565b005b6101ea6004803603602081101561014757600080fd5b810190808035906020019064010000000081111561016457600080fd5b82018360208201111561017657600080fd5b8035906020019184600183028401116401000000008311171561019857600080fd5b91908080601f016020809104026020016040519081016040528093929190818152602001838380828437600081840152601f19601f820116905080830192505050505050509192919290505050610894565b005b3480156101f857600080fd5b506102256004803603602081101561020f57600080fd5b8101908080359060200190929190505050610985565b604051808273ffffffffffffffffffffffffffffffffffffffff1673ffffffffffffffffffffffffffffffffffffffff16815260200191505060405180910390f35b34801561027357600080fd5b5061027c6109b8565b6040518082815260200191505060405180910390f35b34801561029e57600080fd5b506102a76109be565b6040518082815260200191505060405180910390f35b3480156102c957600080fd5b50610300600480360360408110156102e057600080fd5b8101908080359060200190929190803590602001909291905050506109c4565b005b34801561030e57600080fd5b506103c86004803603602081101561032557600080fd5b810190808035906020019064010000000081111561034257600080fd5b82018360208201111561035457600080fd5b8035906020019184600183028401116401000000008311171561037657600080fd5b91908080601f016020809104026020016040519081016040528093929190818152602001838380828437600081840152601f19601f820116905080830192505050505050509192919290505050610aea565b005b3480156103d657600080fd5b50610403600480360360208110156103ed57600080fd5b8101908080359060200190929190505050610b60565b005b34801561041157600080fd5b5061041a610c2c565b6040518082815260200191505060405180910390f35b34801561043c57600080fd5b50610445610c32565b604051808273ffffffffffffffffffffffffffffffffffffffff1673ffffffffffffffffffffffffffffffffffffffff16815260200191505060405180910390f35b34801561049357600080fd5b506104d6600480360360208110156104aa57600080fd5b81019080803573ffffffffffffffffffffffffffffffffffffffff169060200190929190505050610c57565b6040518080602001828103825283818151815260200191508051906020019060200280838360005b838110156105195780820151818401526020810190506104fe565b505050509050019250505060405180910390f35b34801561053957600080fd5b506105bb6004803603604081101561055057600080fd5b81019080803590602001909291908035906020019064010000000081111561057757600080fd5b82018360208201111561058957600080fd5b803590602001918460018302840111640100000000831117156105ab57600080fd5b9091929391929390505050610d84565b005b3480156105c957600080fd5b506105d2610eb6565b6040518082815260200191505060405180910390f35b3480156105f457600080fd5b506106216004803603602081101561060b57600080fd5b8101908080359060200190929190505050610ebc565b60405180806020018781526020018661ffff1661ffff1681526020018561ffff1661ffff1681526020018463ffffffff1663ffffffff1681526020018363ffffffff1663ffffffff168152602001828103825288818151815260200191508051906020019080838360005b838110156106a757808201518184015260208101905061068c565b50505050905090810190601f1680156106d45780820380516001836020036101000a031916815260200191505b5097505050505050505060405180910390f35b3480156106f357600080fd5b506107206004803603602081101561070a57600080fd5b8101908080359060200190929190505050610fd9565b005b34801561072e57600080fd5b5061075b6004803603602081101561074557600080fd5b81019080803590602001909291905050506110a5565b6040518082815260200191505060405180910390f35b34801561077d57600080fd5b506107c06004803603602081101561079457600080fd5b81019080803573ffffffffffffffffffffffffffffffffffffffff1690602001909291905050506110bd565b005b600a5434101561083a576040517f08c379a000000000000000000000000000000000000000000000000000000000815260040180806020018281038252601b8152602001807f596f75722062616c616e6365206973206e6f7420656e6f75676821000000000081525060200191505060405180910390fd5b6006818154811061084757fe5b9060005260206000209060040201600201600481819054906101000a900463ffffffff168092919060010191906101000a81548163ffffffff021916908363ffffffff1602179055505050565b6000600860003373ffffffffffffffffffffffffffffffffffffffff1673ffffffffffffffffffffffffffffffffffffffff16815260200190815260200160002054116108e057600080fd5b600454341015610958576040517f08c379a000000000000000000000000000000000000000000000000000000000815260040180806020018281038252601b8152602001807f596f75722062616c616e6365206973206e6f7420656e6f75676821000000000081525060200191505060405180910390fd5b6000610963826112e0565b90506001600a828161097157fe5b0682030190506109818282611371565b5050565b60076020528060005260406000206000915054906101000a900473ffffffffffffffffffffffffffffffffffffffff1681565b60045481565b60035481565b60148281600682815481106109d557fe5b906000526020600020906004020160020160049054906101000a900463ffffffff1663ffffffff161015610a54576040517f08c379a000000000000000000000000000000000000000000000000000000000815260040180806020018281038252602981526020018061179e6029913960400191505060405180910390fd5b836007600082815260200190815260200160002060009054906101000a900473ffffffffffffffffffffffffffffffffffffffff1673ffffffffffffffffffffffffffffffffffffffff163373ffffffffffffffffffffffffffffffffffffffff1614610ac057600080fd5b8360068681548110610ace57fe5b9060005260206000209060040201600101819055505050505050565b6000600860003373ffffffffffffffffffffffffffffffffffffffff1673ffffffffffffffffffffffffffffffffffffffff1681526020019081526020016000205414610b3657600080fd5b6000610b41826112e0565b9050600a8181610b4d57fe5b0681039050610b5c8282611371565b5050565b6000809054906101000a900473ffffffffffffffffffffffffffffffffffffffff1673ffffffffffffffffffffffffffffffffffffffff163373ffffffffffffffffffffffffffffffffffffffff1614610c22576040517f08c379a00000000000000000000000000000000000000000000000000000000081526004018080602001828103825260138152602001807f4d75737420636f6e7472616374206f776e65720000000000000000000000000081525060200191505060405180910390fd5b8060048190555050565b60055481565b6000809054906101000a900473ffffffffffffffffffffffffffffffffffffffff1681565b606080600860008473ffffffffffffffffffffffffffffffffffffffff1673ffffffffffffffffffffffffffffffffffffffff16815260200190815260200160002054604051908082528060200260200182016040528015610cc85781602001602082028038833980820191505090505b509050600080905060008090505b600680549050811015610d79578473ffffffffffffffffffffffffffffffffffffffff166007600083815260200190815260200160002060009054906101000a900473ffffffffffffffffffffffffffffffffffffffff1673ffffffffffffffffffffffffffffffffffffffff161415610d6c5780838381518110610d5757fe5b60200260200101818152505081806001019250505b8080600101915050610cd6565b508192505050919050565b6002838160068281548110610d9557fe5b906000526020600020906004020160020160049054906101000a900463ffffffff1663ffffffff161015610e14576040517f08c379a000000000000000000000000000000000000000000000000000000000815260040180806020018281038252602981526020018061179e6029913960400191505060405180910390fd5b846007600082815260200190815260200160002060009054906101000a900473ffffffffffffffffffffffffffffffffffffffff1673ffffffffffffffffffffffffffffffffffffffff163373ffffffffffffffffffffffffffffffffffffffff1614610e8057600080fd5b848460068881548110610e8f57fe5b90600052602060002090600402016000019190610ead929190611678565b50505050505050565b600a5481565b60068181548110610ec957fe5b9060005260206000209060040201600091509050806000018054600181600116156101000203166002900480601f016020809104026020016040519081016040528092919081815260200182805460018160011615610100020316600290048015610f755780601f10610f4a57610100808354040283529160200191610f75565b820191906000526020600020905b815481529060010190602001808311610f5857829003601f168201915b5050505050908060010154908060020160009054906101000a900461ffff16908060020160029054906101000a900461ffff16908060020160049054906101000a900463ffffffff16908060020160089054906101000a900463ffffffff16905086565b6000809054906101000a900473ffffffffffffffffffffffffffffffffffffffff1673ffffffffffffffffffffffffffffffffffffffff163373ffffffffffffffffffffffffffffffffffffffff161461109b576040517f08c379a00000000000000000000000000000000000000000000000000000000081526004018080602001828103825260138152602001807f4d75737420636f6e7472616374206f776e65720000000000000000000000000081525060200191505060405180910390fd5b80600a8190555050565b60096020528060005260406000206000915090505481565b6000809054906101000a900473ffffffffffffffffffffffffffffffffffffffff1673ffffffffffffffffffffffffffffffffffffffff163373ffffffffffffffffffffffffffffffffffffffff161461117f576040517f08c379a00000000000000000000000000000000000000000000000000000000081526004018080602001828103825260138152602001807f4d75737420636f6e7472616374206f776e65720000000000000000000000000081525060200191505060405180910390fd5b600073ffffffffffffffffffffffffffffffffffffffff168173ffffffffffffffffffffffffffffffffffffffff161415611222576040517f08c379a00000000000000000000000000000000000000000000000000000000081526004018080602001828103825260138152602001807f4d75737420636f6e7472616374206f776e65720000000000000000000000000081525060200191505060405180910390fd5b8073ffffffffffffffffffffffffffffffffffffffff166000809054906101000a900473ffffffffffffffffffffffffffffffffffffffff1673ffffffffffffffffffffffffffffffffffffffff167f8be0079c531659141344cd1fd0a4f28419497f9722a3daafe3b4186f6b6457e060405160405180910390a3806000806101000a81548173ffffffffffffffffffffffffffffffffffffffff021916908373ffffffffffffffffffffffffffffffffffffffff16021790555050565b600060025482426040516020018083805190602001908083835b6020831061131d57805182526020820191506020810190506020830392506112fa565b6001836020036101000a038019825116818451168082178552505050505050905001828152602001925050506040516020818303038152906040528051906020012060001c8161136957fe5b069050919050565b6000600160066040518060c00160405280868152602001858152602001600061ffff168152602001600061ffff168152602001600163ffffffff168152602001600063ffffffff168152509080600181540180825580915050906001820390600052602060002090600402016000909192909190915060008201518160000190805190602001906114039291906116f8565b506020820151816001015560408201518160020160006101000a81548161ffff021916908361ffff16021790555060608201518160020160026101000a81548161ffff021916908361ffff16021790555060808201518160020160046101000a81548163ffffffff021916908363ffffffff16021790555060a08201518160020160086101000a81548163ffffffff021916908363ffffffff1602179055505050039050336007600083815260200190815260200160002060006101000a81548173ffffffffffffffffffffffffffffffffffffffff021916908373ffffffffffffffffffffffffffffffffffffffff16021790555061154c6001600860003373ffffffffffffffffffffffffffffffffffffffff1673ffffffffffffffffffffffffffffffffffffffff1681526020019081526020016000205461165c90919063ffffffff16565b600860003373ffffffffffffffffffffffffffffffffffffffff1673ffffffffffffffffffffffffffffffffffffffff168152602001908152602001600020819055506115a5600160055461165c90919063ffffffff16565b6005819055507fa6d701777246a1c406210d4b4af8683b00ad9a41b469546e5fb3e91c5e65808c8184846040518084815260200180602001838152602001828103825284818151815260200191508051906020019080838360005b8381101561161b578082015181840152602081019050611600565b50505050905090810190601f1680156116485780820380516001836020036101000a031916815260200191505b5094505050505060405180910390a1505050565b60008082840190508381101561166e57fe5b8091505092915050565b828054600181600116156101000203166002900490600052602060002090601f016020900481019282601f106116b957803560ff19168380011785556116e7565b828001600101855582156116e7579182015b828111156116e65782358255916020019190600101906116cb565b5b5090506116f49190611778565b5090565b828054600181600116156101000203166002900490600052602060002090601f016020900481019282601f1061173957805160ff1916838001178555611767565b82800160010185558215611767579182015b8281111561176657825182559160200191906001019061174b565b5b5090506117749190611778565b5090565b61179a91905b8082111561179657600081600090555060010161177e565b5090565b9056fe596f7572206c6576656c206973206e6f7420656e6f7567682c20706c65617365207570677261646521a265627a7a7231582054752514e44a6c99bd02143352e288cc38c195f26c84044e7e0d3aa3ba46f18664736f6c63430005100032",
  "source": "pragma solidity >=0.4.22 <0.9.0;\n\nimport \"./CatFactory2.sol\";\n\ncontract CatHelper is CatFactory{\n    //  add public \n    uint public levelUpFee = 0.001 ether;\n\n    // ensure whether this happened\n    modifier aboveLevel(uint _level, uint _catId){\n        require(cats[_catId].level >= _level, \"Your level is not enough, please upgrade!\");\n        _;\n    }\n\n    modifier onlyOwnerOf(uint _catId){\n        require(msg.sender == catToOwner[_catId]);\n        _;\n    }\n\n    function setLevelUpFee(uint _fee) external onlyOwner{\n        levelUpFee = _fee;\n    }\n\n    function levelUp(uint _catId) external payable{\n        require(msg.value >= levelUpFee, \"Your balance is not enough!\");\n        cats[_catId].level++;\n    }\n\n    function changeName(uint _catId, string calldata _newName) external aboveLevel(2, _catId) onlyOwnerOf(_catId){\n        cats[_catId].name = _newName;\n    }\n\n    function changeDna(uint _catId, uint dna) external aboveLevel(20, _catId) onlyOwnerOf(_catId){\n        cats[_catId].dna = dna;\n    }\n\n    function getCatsByOwner(address _owner)external view returns(uint[] memory){\n        uint[] memory result = new uint[](ownerCatCount[_owner]);\n        uint counter = 0;\n        for(uint i=0; i<cats.length;i++){\n            if(catToOwner[i] == _owner){\n                // change == to =\n                result[counter] = i;\n                counter ++;\n            }\n        }\n        return result;\n    }\n\n    function _triggerCooldown(Cat storage _cat) internal{\n        _cat.readyTime = uint32(block.timestamp + coolingTime) - uint32(block.timestamp + coolingTime)%1 days;\n    }\n\n    function _isReady(Cat storage _cat) internal view returns (bool){\n        return block.timestamp >= _cat.readyTime;\n    }\n\n    function _breed(uint _catId, uint _targetDna) internal onlyOwnerOf(_catId){\n        Cat storage myCat = cats[_catId];\n        require(_isReady(myCat), \"Your cat is cooling down!\");\n        _targetDna = _targetDna % dnaModules;\n        uint newDna = (myCat.dna + _targetDna) / 2;\n\n        newDna = newDna - newDna % 10 + 9;\n        createCat(\"NoName\", newDna);\n        _triggerCooldown(myCat);\n    }\n\n}",
  "sourcePath": "C:\\Users\\liyh1\\Desktop\\patronus\\contracts\\CatHelper.sol",
  "compiler": {
    "name": "solc",
    "version": "0.5.16+commit.9c3226ce.Emscripten.clang"
  },
  "schemaVersion": "3.4.7",
  "updatedAt": "2022-05-13T03:40:52.051Z",
  "devdoc": {
    "methods": {
      "transferOwnership(address)": {
        "details": "Allows the current owner to transfer control of the contract to a newOwner.",
        "params": {
          "newOwner": "The address to transfer ownership to."
        }
      }
    }
  },
  "userdoc": {
    "methods": {}
  }
}