{
  "contractName": "CatLove",
  "abi": [
    {
      "anonymous": false,
      "inputs": [
        {
          "indexed": false,
          "internalType": "uint256",
          "name": "catId",
          "type": "uint256"
        },
        {
          "indexed": false,
          "internalType": "string",
          "name": "name",
          "type": "string"
        },
        {
          "indexed": false,
          "internalType": "uint256",
          "name": "dna",
          "type": "uint256"
        }
      ],
      "name": "NewCat",
      "type": "event"
    },
    {
      "anonymous": false,
      "inputs": [
        {
          "indexed": true,
          "internalType": "address",
          "name": "previousOwner",
          "type": "address"
        },
        {
          "indexed": true,
          "internalType": "address",
          "name": "newOwner",
          "type": "address"
        }
      ],
      "name": "OwnershipTransferred",
      "type": "event"
    },
    {
      "anonymous": false,
      "inputs": [
        {
          "indexed": false,
          "internalType": "uint256",
          "name": "_catId",
          "type": "uint256"
        },
        {
          "indexed": false,
          "internalType": "uint256",
          "name": "_targetId",
          "type": "uint256"
        }
      ],
      "name": "becomeFriend",
      "type": "event"
    },
    {
      "constant": false,
      "inputs": [
        {
          "internalType": "string",
          "name": "_name",
          "type": "string"
        }
      ],
      "name": "buyRandomCat",
      "outputs": [],
      "payable": true,
      "stateMutability": "payable",
      "type": "function"
    },
    {
      "constant": true,
      "inputs": [],
      "name": "catCount",
      "outputs": [
        {
          "internalType": "uint256",
          "name": "",
          "type": "uint256"
        }
      ],
      "payable": false,
      "stateMutability": "view",
      "type": "function"
    },
    {
      "constant": true,
      "inputs": [
        {
          "internalType": "uint256",
          "name": "",
          "type": "uint256"
        }
      ],
      "name": "catFeedTimes",
      "outputs": [
        {
          "internalType": "uint256",
          "name": "",
          "type": "uint256"
        }
      ],
      "payable": false,
      "stateMutability": "view",
      "type": "function"
    },
    {
      "constant": true,
      "inputs": [],
      "name": "catPrice",
      "outputs": [
        {
          "internalType": "uint256",
          "name": "",
          "type": "uint256"
        }
      ],
      "payable": false,
      "stateMutability": "view",
      "type": "function"
    },
    {
      "constant": true,
      "inputs": [
        {
          "internalType": "uint256",
          "name": "",
          "type": "uint256"
        }
      ],
      "name": "catToOwner",
      "outputs": [
        {
          "internalType": "address",
          "name": "",
          "type": "address"
        }
      ],
      "payable": false,
      "stateMutability": "view",
      "type": "function"
    },
    {
      "constant": true,
      "inputs": [
        {
          "internalType": "uint256",
          "name": "",
          "type": "uint256"
        }
      ],
      "name": "cats",
      "outputs": [
        {
          "internalType": "string",
          "name": "name",
          "type": "string"
        },
        {
          "internalType": "uint256",
          "name": "dna",
          "type": "uint256"
        },
        {
          "internalType": "uint16",
          "name": "winCount",
          "type": "uint16"
        },
        {
          "internalType": "uint16",
          "name": "hairBall",
          "type": "uint16"
        },
        {
          "internalType": "uint32",
          "name": "level",
          "type": "uint32"
        },
        {
          "internalType": "uint32",
          "name": "readyTime",
          "type": "uint32"
        }
      ],
      "payable": false,
      "stateMutability": "view",
      "type": "function"
    },
    {
      "constant": false,
      "inputs": [
        {
          "internalType": "uint256",
          "name": "price",
          "type": "uint256"
        }
      ],
      "name": "changeCatPrice",
      "outputs": [],
      "payable": false,
      "stateMutability": "nonpayable",
      "type": "function"
    },
    {
      "constant": false,
      "inputs": [
        {
          "internalType": "uint256",
          "name": "_catId",
          "type": "uint256"
        },
        {
          "internalType": "uint256",
          "name": "dna",
          "type": "uint256"
        }
      ],
      "name": "changeDna",
      "outputs": [],
      "payable": false,
      "stateMutability": "nonpayable",
      "type": "function"
    },
    {
      "constant": false,
      "inputs": [
        {
          "internalType": "uint256",
          "name": "_catId",
          "type": "uint256"
        },
        {
          "internalType": "string",
          "name": "_newName",
          "type": "string"
        }
      ],
      "name": "changeName",
      "outputs": [],
      "payable": false,
      "stateMutability": "nonpayable",
      "type": "function"
    },
    {
      "constant": true,
      "inputs": [],
      "name": "coolingTime",
      "outputs": [
        {
          "internalType": "uint256",
          "name": "",
          "type": "uint256"
        }
      ],
      "payable": false,
      "stateMutability": "view",
      "type": "function"
    },
    {
      "constant": false,
      "inputs": [
        {
          "internalType": "string",
          "name": "_name",
          "type": "string"
        }
      ],
      "name": "createRandomCat",
      "outputs": [],
      "payable": false,
      "stateMutability": "nonpayable",
      "type": "function"
    },
    {
      "constant": true,
      "inputs": [
        {
          "internalType": "address",
          "name": "_owner",
          "type": "address"
        }
      ],
      "name": "getCatsByOwner",
      "outputs": [
        {
          "internalType": "uint256[]",
          "name": "",
          "type": "uint256[]"
        }
      ],
      "payable": false,
      "stateMutability": "view",
      "type": "function"
    },
    {
      "constant": false,
      "inputs": [
        {
          "internalType": "uint256",
          "name": "_catId",
          "type": "uint256"
        }
      ],
      "name": "levelUp",
      "outputs": [],
      "payable": true,
      "stateMutability": "payable",
      "type": "function"
    },
    {
      "constant": true,
      "inputs": [],
      "name": "levelUpFee",
      "outputs": [
        {
          "internalType": "uint256",
          "name": "",
          "type": "uint256"
        }
      ],
      "payable": false,
      "stateMutability": "view",
      "type": "function"
    },
    {
      "constant": true,
      "inputs": [],
      "name": "owner",
      "outputs": [
        {
          "internalType": "address payable",
          "name": "",
          "type": "address"
        }
      ],
      "payable": false,
      "stateMutability": "view",
      "type": "function"
    },
    {
      "constant": false,
      "inputs": [
        {
          "internalType": "uint256",
          "name": "_fee",
          "type": "uint256"
        }
      ],
      "name": "setLevelUpFee",
      "outputs": [],
      "payable": false,
      "stateMutability": "nonpayable",
      "type": "function"
    },
    {
      "constant": false,
      "inputs": [
        {
          "internalType": "address payable",
          "name": "newOwner",
          "type": "address"
        }
      ],
      "name": "transferOwnership",
      "outputs": [],
      "payable": false,
      "stateMutability": "nonpayable",
      "type": "function"
    },
    {
      "constant": false,
      "inputs": [
        {
          "internalType": "uint256",
          "name": "_visitSuccessProbability",
          "type": "uint256"
        },
        {
          "internalType": "uint256",
          "name": "i",
          "type": "uint256"
        }
      ],
      "name": "setVisitSuccessProbability",
      "outputs": [],
      "payable": false,
      "stateMutability": "nonpayable",
      "type": "function"
    },
    {
      "constant": false,
      "inputs": [
        {
          "internalType": "uint256",
          "name": "_inviteLevel",
          "type": "uint256"
        }
      ],
      "name": "setInviteLevel",
      "outputs": [],
      "payable": false,
      "stateMutability": "nonpayable",
      "type": "function"
    },
    {
      "constant": false,
      "inputs": [
        {
          "internalType": "uint256",
          "name": "_loveLevel",
          "type": "uint256"
        }
      ],
      "name": "setLoveLevel",
      "outputs": [],
      "payable": false,
      "stateMutability": "nonpayable",
      "type": "function"
    },
    {
      "constant": false,
      "inputs": [
        {
          "internalType": "uint256",
          "name": "_catId",
          "type": "uint256"
        },
        {
          "internalType": "uint256",
          "name": "_targetId",
          "type": "uint256"
        }
      ],
      "name": "_becomeFriend",
      "outputs": [],
      "payable": false,
      "stateMutability": "nonpayable",
      "type": "function"
    },
    {
      "constant": false,
      "inputs": [
        {
          "internalType": "uint256",
          "name": "_catId",
          "type": "uint256"
        },
        {
          "internalType": "uint256",
          "name": "_targetId",
          "type": "uint256"
        }
      ],
      "name": "sendGift",
      "outputs": [],
      "payable": false,
      "stateMutability": "nonpayable",
      "type": "function"
    },
    {
      "constant": false,
      "inputs": [
        {
          "internalType": "uint256",
          "name": "_catId",
          "type": "uint256"
        },
        {
          "internalType": "uint256",
          "name": "_targetId",
          "type": "uint256"
        }
      ],
      "name": "visit",
      "outputs": [],
      "payable": false,
      "stateMutability": "nonpayable",
      "type": "function"
    },
    {
      "constant": false,
      "inputs": [
        {
          "internalType": "uint256",
          "name": "_catId",
          "type": "uint256"
        },
        {
          "internalType": "uint256",
          "name": "_targetId",
          "type": "uint256"
        }
      ],
      "name": "invite",
      "outputs": [],
      "payable": false,
      "stateMutability": "nonpayable",
      "type": "function"
    }
  ],
  "bytecode": "0x60806040526010600155600154600a0a6002556001600355662386f26fc10000600455600060055566038d7ea4c68000600a556000600b556014600c556028600d556040518060600160405280603c60ff168152602001605060ff168152602001606460ff16815250600e9060036200007a929190620000c1565b50336000806101000a81548173ffffffffffffffffffffffffffffffffffffffff021916908373ffffffffffffffffffffffffffffffffffffffff16021790555062000133565b8260038101928215620000f8579160200282015b82811115620000f7578251829060ff16905591602001919060010190620000d5565b5b5090506200010791906200010b565b5090565b6200013091905b808211156200012c57600081600090555060010162000112565b5090565b90565b6129f680620001436000396000f3fe60806040526004361061014b5760003560e01c80638036671b116100b6578063c4114b121161006f578063c4114b1214610794578063c6df962d146107bf578063ccf670f8146108be578063cda18e34146108f9578063e8850adc14610948578063f2fde38b1461098d5761014b565b80638036671b1461056657806388332415146105a15780638da5cb5b146105cc578063c1bab34214610623578063c2a88ebe146106c9578063c39cbef1146107045761014b565b80633ad4c342116101085780633ad4c34214610383578063439c960d146103ae57806358f48985146103d95780635faf28801461041e578063600ff8eb14610463578063710100c41461052b5761014b565b80630ce90ec2146101505780632bffa61a1461017e5780632c59a933146101c35780632c9111761461027e57806337ce6382146102c35780633aab8dc814610308575b600080fd5b61017c6004803603602081101561016657600080fd5b81019080803590602001909291905050506109de565b005b34801561018a57600080fd5b506101c1600480360360408110156101a157600080fd5b810190808035906020019092919080359060200190929190505050610ab0565b005b61027c600480360360208110156101d957600080fd5b81019080803590602001906401000000008111156101f657600080fd5b82018360208201111561020857600080fd5b8035906020019184600183028401116401000000008311171561022a57600080fd5b91908080601f016020809104026020016040519081016040528093929190818152602001838380828437600081840152601f19601f820116905080830192505050505050509192919290505050610d29565b005b34801561028a57600080fd5b506102c1600480360360408110156102a157600080fd5b810190808035906020019092919080359060200190929190505050610e1a565b005b3480156102cf57600080fd5b50610306600480360360408110156102e657600080fd5b810190808035906020019092919080359060200190929190505050610ef3565b005b34801561031457600080fd5b506103416004803603602081101561032b57600080fd5b8101908080359060200190929190505050611242565b604051808273ffffffffffffffffffffffffffffffffffffffff1673ffffffffffffffffffffffffffffffffffffffff16815260200191505060405180910390f35b34801561038f57600080fd5b50610398611275565b6040518082815260200191505060405180910390f35b3480156103ba57600080fd5b506103c361127b565b6040518082815260200191505060405180910390f35b3480156103e557600080fd5b5061041c600480360360408110156103fc57600080fd5b810190808035906020019092919080359060200190929190505050611281565b005b34801561042a57600080fd5b506104616004803603604081101561044157600080fd5b81019080803590602001909291908035906020019092919050505061159f565b005b34801561046f57600080fd5b506105296004803603602081101561048657600080fd5b81019080803590602001906401000000008111156104a357600080fd5b8201836020820111156104b557600080fd5b803590602001918460018302840111640100000000831117156104d757600080fd5b91908080601f016020809104026020016040519081016040528093929190818152602001838380828437600081840152601f19601f8201169050808301925050505050505091929192905050506116c5565b005b34801561053757600080fd5b506105646004803603602081101561054e57600080fd5b810190808035906020019092919050505061173b565b005b34801561057257600080fd5b5061059f6004803603602081101561058957600080fd5b8101908080359060200190929190505050611807565b005b3480156105ad57600080fd5b506105b66118d3565b6040518082815260200191505060405180910390f35b3480156105d857600080fd5b506105e16118d9565b604051808273ffffffffffffffffffffffffffffffffffffffff1673ffffffffffffffffffffffffffffffffffffffff16815260200191505060405180910390f35b34801561062f57600080fd5b506106726004803603602081101561064657600080fd5b81019080803573ffffffffffffffffffffffffffffffffffffffff1690602001909291905050506118fe565b6040518080602001828103825283818151815260200191508051906020019060200280838360005b838110156106b557808201518184015260208101905061069a565b505050509050019250505060405180910390f35b3480156106d557600080fd5b50610702600480360360208110156106ec57600080fd5b8101908080359060200190929190505050611a2b565b005b34801561071057600080fd5b506107926004803603604081101561072757600080fd5b81019080803590602001909291908035906020019064010000000081111561074e57600080fd5b82018360208201111561076057600080fd5b8035906020019184600183028401116401000000008311171561078257600080fd5b9091929391929390505050611af7565b005b3480156107a057600080fd5b506107a9611c29565b6040518082815260200191505060405180910390f35b3480156107cb57600080fd5b506107f8600480360360208110156107e257600080fd5b8101908080359060200190929190505050611c2f565b60405180806020018781526020018661ffff1661ffff1681526020018561ffff1661ffff1681526020018463ffffffff1663ffffffff1681526020018363ffffffff1663ffffffff168152602001828103825288818151815260200191508051906020019080838360005b8381101561087e578082015181840152602081019050610863565b50505050905090810190601f1680156108ab5780820380516001836020036101000a031916815260200191505b5097505050505050505060405180910390f35b3480156108ca57600080fd5b506108f7600480360360208110156108e157600080fd5b8101908080359060200190929190505050611d4c565b005b34801561090557600080fd5b506109326004803603602081101561091c57600080fd5b8101908080359060200190929190505050611e18565b6040518082815260200191505060405180910390f35b34801561095457600080fd5b5061098b6004803603604081101561096b57600080fd5b810190808035906020019092919080359060200190929190505050611e30565b005b34801561099957600080fd5b506109dc600480360360208110156109b057600080fd5b81019080803573ffffffffffffffffffffffffffffffffffffffff169060200190929190505050612036565b005b600a54341015610a56576040517f08c379a000000000000000000000000000000000000000000000000000000000815260040180806020018281038252601b8152602001807f596f75722062616c616e6365206973206e6f7420656e6f75676821000000000081525060200191505060405180910390fd5b60068181548110610a6357fe5b9060005260206000209060040201600201600481819054906101000a900463ffffffff168092919060010191906101000a81548163ffffffff021916908363ffffffff1602179055505050565b816007600082815260200190815260200160002060009054906101000a900473ffffffffffffffffffffffffffffffffffffffff1673ffffffffffffffffffffffffffffffffffffffff163373ffffffffffffffffffffffffffffffffffffffff1614610b1c57600080fd5b600060068481548110610b2b57fe5b90600052602060002090600402019050600060068481548110610b4a57fe5b906000526020600020906004020190506001816003016000878152602001908152602001600020600101541015610be9576040517f08c379a000000000000000000000000000000000000000000000000000000000815260040180806020018281038252601c8152602001807f596f7520686176656e272074206265636f6d6520667269656e6473210000000081525060200191505060405180910390fd5b6000610bf56064612259565b905060058360020160049054906101000a900463ffffffff1663ffffffff161015610c64576000600e600060038110610c2a57fe5b01549050808211610c5e57826003016000888152602001908152602001600020600101600081548092919060010191905055505b50610d18565b600f8360020160049054906101000a900463ffffffff1663ffffffff161015610cd1576000600e600160038110610c9757fe5b01549050808211610ccb57826003016000888152602001908152602001600020600101600081548092919060010191905055505b50610d17565b6000600e600260038110610ce157fe5b01549050808211610d1557826003016000888152602001908152602001600020600101600081548092919060010191905055505b505b5b610d21836122e8565b505050505050565b6000600860003373ffffffffffffffffffffffffffffffffffffffff1673ffffffffffffffffffffffffffffffffffffffff1681526020019081526020016000205411610d7557600080fd5b600454341015610ded576040517f08c379a000000000000000000000000000000000000000000000000000000000815260040180806020018281038252601b8152602001807f596f75722062616c616e6365206973206e6f7420656e6f75676821000000000081525060200191505060405180910390fd5b6000610df88261232a565b90506001600a8281610e0657fe5b068203019050610e1682826123bb565b5050565b6000809054906101000a900473ffffffffffffffffffffffffffffffffffffffff1673ffffffffffffffffffffffffffffffffffffffff163373ffffffffffffffffffffffffffffffffffffffff1614610edc576040517f08c379a00000000000000000000000000000000000000000000000000000000081526004018080602001828103825260138152602001807f4d75737420636f6e7472616374206f776e65720000000000000000000000000081525060200191505060405180910390fd5b81600e8260038110610eea57fe5b01819055505050565b816007600082815260200190815260200160002060009054906101000a900473ffffffffffffffffffffffffffffffffffffffff1673ffffffffffffffffffffffffffffffffffffffff163373ffffffffffffffffffffffffffffffffffffffff1614610f5f57600080fd5b600060068481548110610f6e57fe5b90600052602060002090600402019050600060068481548110610f8d57fe5b90600052602060002090600402019050600c5481600301600087815260200190815260200160002060010154101561102d576040517f08c379a000000000000000000000000000000000000000000000000000000000815260040180806020018281038252601c8152602001807f546865206361747320617265206e6f7420736f20636c6f7365203a280000000081525060200191505060405180910390fd5b600d5481600301600087815260200190815260200160002060010154106110db5781600201600481819054906101000a900463ffffffff168092919060010191906101000a81548163ffffffff021916908363ffffffff1602179055505080600201600481819054906101000a900463ffffffff168092919060010191906101000a81548163ffffffff021916908363ffffffff160217905550506110d68582600101546126a6565b61123b565b8060020160049054906101000a900463ffffffff1663ffffffff168260020160049054906101000a900463ffffffff1663ffffffff16106111795760006111226064612259565b905060328111156111405761113b8683600101546126a6565b611173565b611149836122e8565b81600301600087815260200190815260200160002060010160008154809291906001900391905055505b5061123a565b60006111856064612259565b905060328111156111c757611199836122e8565b8160030160008781526020019081526020016000206001016000815480929190600190039190505550611238565b6111d0836122e8565b82600201600481819054906101000a900463ffffffff16809291906001900391906101000a81548163ffffffff021916908363ffffffff1602179055505081600301600087815260200190815260200160002060010160008154809291906001900391905055505b505b5b5050505050565b60076020528060005260406000206000915054906101000a900473ffffffffffffffffffffffffffffffffffffffff1681565b60045481565b60035481565b816007600082815260200190815260200160002060009054906101000a900473ffffffffffffffffffffffffffffffffffffffff1673ffffffffffffffffffffffffffffffffffffffff163373ffffffffffffffffffffffffffffffffffffffff16146112ed57600080fd5b6001600684815481106112fc57fe5b906000526020600020906004020160020160029054906101000a900461ffff1661ffff161015611394576040517f08c379a000000000000000000000000000000000000000000000000000000000815260040180806020018281038252601c8152602001807f596f7520646f6e2774206861766520616e79206861697242616c6c210000000081525060200191505060405180910390fd5b6000600684815481106113a357fe5b906000526020600020906004020190506000600684815481106113c257fe5b906000526020600020906004020190506001816003016000878152602001908152602001600020600101541015611461576040517f08c379a000000000000000000000000000000000000000000000000000000000815260040180806020018281038252601c8152602001807f596f7520686176656e272074206265636f6d6520667269656e6473210000000081525060200191505060405180910390fd5b81600201600281819054906101000a900461ffff16809291906001900391906101000a81548161ffff021916908361ffff1602179055505080600201600281819054906101000a900461ffff168092919060010191906101000a81548161ffff021916908361ffff1602179055505080600301600086815260200190815260200160002060010160008154809291906001019190505550806003016000868152602001908152602001600020600101600081548092919060010191905055508060030160008681526020019081526020016000206001016000815480929190600101919050555080600301600086815260200190815260200160002060010160008154809291906001019190505550806003016000868152602001908152602001600020600101600081548092919060010191905055505050505050565b60148281600682815481106115b057fe5b906000526020600020906004020160020160049054906101000a900463ffffffff1663ffffffff16101561162f576040517f08c379a00000000000000000000000000000000000000000000000000000000081526004018080602001828103825260298152602001806129996029913960400191505060405180910390fd5b836007600082815260200190815260200160002060009054906101000a900473ffffffffffffffffffffffffffffffffffffffff1673ffffffffffffffffffffffffffffffffffffffff163373ffffffffffffffffffffffffffffffffffffffff161461169b57600080fd5b83600686815481106116a957fe5b9060005260206000209060040201600101819055505050505050565b6000600860003373ffffffffffffffffffffffffffffffffffffffff1673ffffffffffffffffffffffffffffffffffffffff168152602001908152602001600020541461171157600080fd5b600061171c8261232a565b9050600a818161172857fe5b068103905061173782826123bb565b5050565b6000809054906101000a900473ffffffffffffffffffffffffffffffffffffffff1673ffffffffffffffffffffffffffffffffffffffff163373ffffffffffffffffffffffffffffffffffffffff16146117fd576040517f08c379a00000000000000000000000000000000000000000000000000000000081526004018080602001828103825260138152602001807f4d75737420636f6e7472616374206f776e65720000000000000000000000000081525060200191505060405180910390fd5b8060048190555050565b6000809054906101000a900473ffffffffffffffffffffffffffffffffffffffff1673ffffffffffffffffffffffffffffffffffffffff163373ffffffffffffffffffffffffffffffffffffffff16146118c9576040517f08c379a00000000000000000000000000000000000000000000000000000000081526004018080602001828103825260138152602001807f4d75737420636f6e7472616374206f776e65720000000000000000000000000081525060200191505060405180910390fd5b80600c8190555050565b60055481565b6000809054906101000a900473ffffffffffffffffffffffffffffffffffffffff1681565b606080600860008473ffffffffffffffffffffffffffffffffffffffff1673ffffffffffffffffffffffffffffffffffffffff1681526020019081526020016000205460405190808252806020026020018201604052801561196f5781602001602082028038833980820191505090505b509050600080905060008090505b600680549050811015611a20578473ffffffffffffffffffffffffffffffffffffffff166007600083815260200190815260200160002060009054906101000a900473ffffffffffffffffffffffffffffffffffffffff1673ffffffffffffffffffffffffffffffffffffffff161415611a1357808383815181106119fe57fe5b60200260200101818152505081806001019250505b808060010191505061197d565b508192505050919050565b6000809054906101000a900473ffffffffffffffffffffffffffffffffffffffff1673ffffffffffffffffffffffffffffffffffffffff163373ffffffffffffffffffffffffffffffffffffffff1614611aed576040517f08c379a00000000000000000000000000000000000000000000000000000000081526004018080602001828103825260138152602001807f4d75737420636f6e7472616374206f776e65720000000000000000000000000081525060200191505060405180910390fd5b80600d8190555050565b6002838160068281548110611b0857fe5b906000526020600020906004020160020160049054906101000a900463ffffffff1663ffffffff161015611b87576040517f08c379a00000000000000000000000000000000000000000000000000000000081526004018080602001828103825260298152602001806129996029913960400191505060405180910390fd5b846007600082815260200190815260200160002060009054906101000a900473ffffffffffffffffffffffffffffffffffffffff1673ffffffffffffffffffffffffffffffffffffffff163373ffffffffffffffffffffffffffffffffffffffff1614611bf357600080fd5b848460068881548110611c0257fe5b90600052602060002090600402016000019190611c20929190612873565b50505050505050565b600a5481565b60068181548110611c3c57fe5b9060005260206000209060040201600091509050806000018054600181600116156101000203166002900480601f016020809104026020016040519081016040528092919081815260200182805460018160011615610100020316600290048015611ce85780601f10611cbd57610100808354040283529160200191611ce8565b820191906000526020600020905b815481529060010190602001808311611ccb57829003601f168201915b5050505050908060010154908060020160009054906101000a900461ffff16908060020160029054906101000a900461ffff16908060020160049054906101000a900463ffffffff16908060020160089054906101000a900463ffffffff16905086565b6000809054906101000a900473ffffffffffffffffffffffffffffffffffffffff1673ffffffffffffffffffffffffffffffffffffffff163373ffffffffffffffffffffffffffffffffffffffff1614611e0e576040517f08c379a00000000000000000000000000000000000000000000000000000000081526004018080602001828103825260138152602001807f4d75737420636f6e7472616374206f776e65720000000000000000000000000081525060200191505060405180910390fd5b80600a8190555050565b60096020528060005260406000206000915090505481565b6002828160068281548110611e4157fe5b906000526020600020906004020160020160049054906101000a900463ffffffff1663ffffffff161015611ec0576040517f08c379a00000000000000000000000000000000000000000000000000000000081526004018080602001828103825260298152602001806129996029913960400191505060405180910390fd5b836007600082815260200190815260200160002060009054906101000a900473ffffffffffffffffffffffffffffffffffffffff1673ffffffffffffffffffffffffffffffffffffffff163373ffffffffffffffffffffffffffffffffffffffff1614611f2c57600080fd5b600060068681548110611f3b57fe5b90600052602060002090600402019050600060068681548110611f5a57fe5b906000526020600020906004020190506040518060400160405280878152602001600181525082600301600088815260200190815260200160002060008201518160000155602082015181600101559050506040518060400160405280888152602001600181525081600301600089815260200190815260200160002060008201518160000155602082015181600101559050507fc1dd44fffdefc7c00140d74867fa62bc1c7f6363f84391ccf362182d8b7c6ff08787604051808381526020018281526020019250505060405180910390a150505050505050565b6000809054906101000a900473ffffffffffffffffffffffffffffffffffffffff1673ffffffffffffffffffffffffffffffffffffffff163373ffffffffffffffffffffffffffffffffffffffff16146120f8576040517f08c379a00000000000000000000000000000000000000000000000000000000081526004018080602001828103825260138152602001807f4d75737420636f6e7472616374206f776e65720000000000000000000000000081525060200191505060405180910390fd5b600073ffffffffffffffffffffffffffffffffffffffff168173ffffffffffffffffffffffffffffffffffffffff16141561219b576040517f08c379a00000000000000000000000000000000000000000000000000000000081526004018080602001828103825260138152602001807f4d75737420636f6e7472616374206f776e65720000000000000000000000000081525060200191505060405180910390fd5b8073ffffffffffffffffffffffffffffffffffffffff166000809054906101000a900473ffffffffffffffffffffffffffffffffffffffff1673ffffffffffffffffffffffffffffffffffffffff167f8be0079c531659141344cd1fd0a4f28419497f9722a3daafe3b4186f6b6457e060405160405180910390a3806000806101000a81548173ffffffffffffffffffffffffffffffffffffffff021916908373ffffffffffffffffffffffffffffffffffffffff16021790555050565b6000600b60008154809291906001019190505550814233600b54604051602001808481526020018373ffffffffffffffffffffffffffffffffffffffff1673ffffffffffffffffffffffffffffffffffffffff1660601b815260140182815260200193505050506040516020818303038152906040528051906020012060001c816122e057fe5b069050919050565b62015180600354420163ffffffff16816122fe57fe5b066003544201038160020160086101000a81548163ffffffff021916908363ffffffff16021790555050565b600060025482426040516020018083805190602001908083835b602083106123675780518252602082019150602081019050602083039250612344565b6001836020036101000a038019825116818451168082178552505050505050905001828152602001925050506040516020818303038152906040528051906020012060001c816123b357fe5b069050919050565b6000600160066040518060c00160405280868152602001858152602001600061ffff168152602001600061ffff168152602001600163ffffffff168152602001600063ffffffff1681525090806001815401808255809150509060018203906000526020600020906004020160009091929091909150600082015181600001908051906020019061244d9291906128f3565b506020820151816001015560408201518160020160006101000a81548161ffff021916908361ffff16021790555060608201518160020160026101000a81548161ffff021916908361ffff16021790555060808201518160020160046101000a81548163ffffffff021916908363ffffffff16021790555060a08201518160020160086101000a81548163ffffffff021916908363ffffffff1602179055505050039050336007600083815260200190815260200160002060006101000a81548173ffffffffffffffffffffffffffffffffffffffff021916908373ffffffffffffffffffffffffffffffffffffffff1602179055506125966001600860003373ffffffffffffffffffffffffffffffffffffffff1673ffffffffffffffffffffffffffffffffffffffff1681526020019081526020016000205461283090919063ffffffff16565b600860003373ffffffffffffffffffffffffffffffffffffffff1673ffffffffffffffffffffffffffffffffffffffff168152602001908152602001600020819055506125ef600160055461283090919063ffffffff16565b6005819055507fa6d701777246a1c406210d4b4af8683b00ad9a41b469546e5fb3e91c5e65808c8184846040518084815260200180602001838152602001828103825284818151815260200191508051906020019080838360005b8381101561266557808201518184015260208101905061264a565b50505050905090810190601f1680156126925780820380516001836020036101000a031916815260200191505b5094505050505060405180910390a1505050565b816007600082815260200190815260200160002060009054906101000a900473ffffffffffffffffffffffffffffffffffffffff1673ffffffffffffffffffffffffffffffffffffffff163373ffffffffffffffffffffffffffffffffffffffff161461271257600080fd5b60006006848154811061272157fe5b9060005260206000209060040201905061273a8161284c565b6127ac576040517f08c379a00000000000000000000000000000000000000000000000000000000081526004018080602001828103825260198152602001807f596f75722063617420697320636f6f6c696e6720646f776e210000000000000081525060200191505060405180910390fd5b60025483816127b757fe5b0692506000600284836001015401816127cc57fe5b0490506009600a82816127db57fe5b0682030190506128206040518060400160405280600681526020017f4e6f4e616d650000000000000000000000000000000000000000000000000000815250826123bb565b612829826122e8565b5050505050565b60008082840190508381101561284257fe5b8091505092915050565b60008160020160089054906101000a900463ffffffff1663ffffffff164210159050919050565b828054600181600116156101000203166002900490600052602060002090601f016020900481019282601f106128b457803560ff19168380011785556128e2565b828001600101855582156128e2579182015b828111156128e15782358255916020019190600101906128c6565b5b5090506128ef9190612973565b5090565b828054600181600116156101000203166002900490600052602060002090601f016020900481019282601f1061293457805160ff1916838001178555612962565b82800160010185558215612962579182015b82811115612961578251825591602001919060010190612946565b5b50905061296f9190612973565b5090565b61299591905b80821115612991576000816000905550600101612979565b5090565b9056fe596f7572206c6576656c206973206e6f7420656e6f7567682c20706c65617365207570677261646521a265627a7a72315820089c6434569f7e260f83acfb2e599cf2b6264c35e1ae7504a266295a0332851464736f6c63430005100032",
  "source": "pragma solidity >=0.4.22 <0.9.0;\n\nimport \"./CatHelper.sol\";\n\ncontract CatLove is CatHelper{\n    uint randNonce = 0;\n    uint inviteLevel = 20;\n    uint loveLevel = 40;\n    uint[3] visitSuccessProbability = [60,80,100];\n\n    event becomeFriend(uint _catId, uint _targetId);\n\n    function randMod(uint _modules) internal returns(uint){\n        randNonce ++;\n        return uint(keccak256(abi.encodePacked(now, msg.sender, randNonce))) % _modules;\n    }\n\n    function setVisitSuccessProbability(uint _visitSuccessProbability, uint i) public onlyOwner{\n        visitSuccessProbability[i] = _visitSuccessProbability;\n    }\n\n    function setInviteLevel(uint _inviteLevel) public onlyOwner{\n        inviteLevel = _inviteLevel;\n    }\n\n    function setLoveLevel(uint _loveLevel) public onlyOwner{\n        loveLevel = _loveLevel;\n    }\n\n    function _becomeFriend(uint _catId, uint _targetId) external aboveLevel(2, _catId) onlyOwnerOf(_catId){\n        Cat storage myCat = cats[_catId];\n        Cat storage ReceiveCat = cats[_targetId];\n        myCat.likeLevels[_targetId] = likeLevel({catId:_targetId, like:1});\n        ReceiveCat.likeLevels[_catId] = likeLevel({catId:_catId, like:1});\n        emit becomeFriend(_catId, _targetId);\n    }\n\n    function sendGift(uint _catId, uint _targetId) external onlyOwnerOf(_catId){\n        require(cats[_catId].hairBall >= 1, \"You don't have any hairBall!\");\n        Cat storage myCat = cats[_catId];\n        Cat storage ReceiveCat = cats[_targetId];\n        require(ReceiveCat.likeLevels[_catId].like >= 1, \"You haven' t become friends!\");\n        myCat.hairBall --;\n        ReceiveCat.hairBall ++;\n        ReceiveCat.likeLevels[_catId].like ++;\n        ReceiveCat.likeLevels[_catId].like ++;\n        ReceiveCat.likeLevels[_catId].like ++;\n        ReceiveCat.likeLevels[_catId].like ++;\n        ReceiveCat.likeLevels[_catId].like ++;\n    }\n\n    function visit(uint _catId, uint _targetId) external onlyOwnerOf(_catId){\n        Cat storage myCat = cats[_catId];\n        Cat storage visitCat = cats[_targetId];\n        require(visitCat.likeLevels[_catId].like >= 1, \"You haven' t become friends!\");\n        uint rand = randMod(100);\n        \n        if (myCat.level < 5){\n            uint prob = visitSuccessProbability[0];\n            if (rand <= prob){\n                visitCat.likeLevels[_catId].like ++;\n            }\n        }\n        else{\n            if (myCat.level < 15){\n                uint prob = visitSuccessProbability[1];\n                if (rand <= prob){\n                    visitCat.likeLevels[_catId].like ++;\n                }\n            }\n            else{\n                uint prob = visitSuccessProbability[2];\n                if (rand <= prob){\n                    visitCat.likeLevels[_catId].like ++;\n                }\n            }\n        }\n        _triggerCooldown(myCat);\n    }\n\n    function invite(uint _catId, uint _targetId) external onlyOwnerOf(_catId){\n        Cat storage myCat = cats[_catId];\n        Cat storage visitCat = cats[_targetId];\n        require(visitCat.likeLevels[_catId].like >= inviteLevel, \"The cats are not so close :(\");\n        if (visitCat.likeLevels[_catId].like >= loveLevel){\n            myCat.level ++;\n            visitCat.level ++;\n            _breed(_catId, visitCat.dna);\n        }\n        else{\n            if (myCat.level >= visitCat.level){\n                uint rand = randMod(100);\n                if (rand > 50){\n                    _breed(_catId, visitCat.dna);\n                }\n                else{\n                    _triggerCooldown(myCat);\n                    visitCat.likeLevels[_catId].like --;\n                }\n            }\n            else{\n                uint rand = randMod(100);\n                if (rand > 50){\n                    _triggerCooldown(myCat);\n                    visitCat.likeLevels[_catId].like --;\n                }\n                else{\n                    _triggerCooldown(myCat);\n                    myCat.level --;\n                    visitCat.likeLevels[_catId].like --;\n                }\n            }\n        }\n    }\n\n}",
  "sourcePath": "/Users/zhangmengdie/Desktop/meow meow-new/contracts/CatLove.sol",
  "compiler": {
    "name": "solc",
    "version": "0.5.16+commit.9c3226ce.Emscripten.clang"
  },
  "schemaVersion": "3.4.7",
  "updatedAt": "2022-05-01T05:47:28.664Z",
  "devdoc": {
    "methods": {
      "transferOwnership(address)": {
        "details": "Allows the current owner to transfer control of the contract to a newOwner.",
        "params": {
          "newOwner": "The address to transfer ownership to."
        }
      }
    }
  },
  "userdoc": {
    "methods": {}
  }
}