{
  "contractName": "CatMarket",
  "abi": [
    {
      "anonymous": false,
      "inputs": [
        {
          "indexed": true,
          "internalType": "address",
          "name": "_owner",
          "type": "address"
        },
        {
          "indexed": true,
          "internalType": "address",
          "name": "_approved",
          "type": "address"
        },
        {
          "indexed": false,
          "internalType": "uint256",
          "name": "_tokenId",
          "type": "uint256"
        }
      ],
      "name": "Approval",
      "type": "event"
    },
    {
      "anonymous": false,
      "inputs": [
        {
          "indexed": true,
          "internalType": "uint256",
          "name": "_catId",
          "type": "uint256"
        },
        {
          "indexed": true,
          "internalType": "address",
          "name": "buyer",
          "type": "address"
        },
        {
          "indexed": true,
          "internalType": "address",
          "name": "seller",
          "type": "address"
        }
      ],
      "name": "BuyShopCat",
      "type": "event"
    },
    {
      "anonymous": false,
      "inputs": [
        {
          "indexed": false,
          "internalType": "uint256",
          "name": "catId",
          "type": "uint256"
        },
        {
          "indexed": false,
          "internalType": "string",
          "name": "name",
          "type": "string"
        },
        {
          "indexed": false,
          "internalType": "uint256",
          "name": "dna",
          "type": "uint256"
        }
      ],
      "name": "NewCat",
      "type": "event"
    },
    {
      "anonymous": false,
      "inputs": [
        {
          "indexed": true,
          "internalType": "address",
          "name": "previousOwner",
          "type": "address"
        },
        {
          "indexed": true,
          "internalType": "address",
          "name": "newOwner",
          "type": "address"
        }
      ],
      "name": "OwnershipTransferred",
      "type": "event"
    },
    {
      "anonymous": false,
      "inputs": [
        {
          "indexed": true,
          "internalType": "uint256",
          "name": "_catId",
          "type": "uint256"
        },
        {
          "indexed": true,
          "internalType": "address",
          "name": "seller",
          "type": "address"
        }
      ],
      "name": "SaleCat",
      "type": "event"
    },
    {
      "anonymous": false,
      "inputs": [
        {
          "indexed": true,
          "internalType": "address",
          "name": "_from",
          "type": "address"
        },
        {
          "indexed": true,
          "internalType": "address",
          "name": "_to",
          "type": "address"
        },
        {
          "indexed": false,
          "internalType": "uint256",
          "name": "_tokenId",
          "type": "uint256"
        }
      ],
      "name": "Transfer",
      "type": "event"
    },
    {
      "constant": false,
      "inputs": [
        {
          "internalType": "address",
          "name": "_to",
          "type": "address"
        },
        {
          "internalType": "uint256",
          "name": "_tokenId",
          "type": "uint256"
        }
      ],
      "name": "approve",
      "outputs": [],
      "payable": false,
      "stateMutability": "nonpayable",
      "type": "function"
    },
    {
      "constant": true,
      "inputs": [
        {
          "internalType": "address",
          "name": "_owner",
          "type": "address"
        }
      ],
      "name": "balanceOf",
      "outputs": [
        {
          "internalType": "uint256",
          "name": "_balance",
          "type": "uint256"
        }
      ],
      "payable": false,
      "stateMutability": "view",
      "type": "function"
    },
    {
      "constant": false,
      "inputs": [
        {
          "internalType": "string",
          "name": "_name",
          "type": "string"
        }
      ],
      "name": "buyRandomCat",
      "outputs": [],
      "payable": true,
      "stateMutability": "payable",
      "type": "function"
    },
    {
      "constant": true,
      "inputs": [],
      "name": "catCount",
      "outputs": [
        {
          "internalType": "uint256",
          "name": "",
          "type": "uint256"
        }
      ],
      "payable": false,
      "stateMutability": "view",
      "type": "function"
    },
    {
      "constant": true,
      "inputs": [
        {
          "internalType": "uint256",
          "name": "",
          "type": "uint256"
        }
      ],
      "name": "catFeedTimes",
      "outputs": [
        {
          "internalType": "uint256",
          "name": "",
          "type": "uint256"
        }
      ],
      "payable": false,
      "stateMutability": "view",
      "type": "function"
    },
    {
      "constant": true,
      "inputs": [],
      "name": "catPrice",
      "outputs": [
        {
          "internalType": "uint256",
          "name": "",
          "type": "uint256"
        }
      ],
      "payable": false,
      "stateMutability": "view",
      "type": "function"
    },
    {
      "constant": true,
      "inputs": [
        {
          "internalType": "uint256",
          "name": "",
          "type": "uint256"
        }
      ],
      "name": "catShop",
      "outputs": [
        {
          "internalType": "address payable",
          "name": "seller",
          "type": "address"
        },
        {
          "internalType": "uint256",
          "name": "price",
          "type": "uint256"
        }
      ],
      "payable": false,
      "stateMutability": "view",
      "type": "function"
    },
    {
      "constant": true,
      "inputs": [
        {
          "internalType": "uint256",
          "name": "",
          "type": "uint256"
        }
      ],
      "name": "catToOwner",
      "outputs": [
        {
          "internalType": "address",
          "name": "",
          "type": "address"
        }
      ],
      "payable": false,
      "stateMutability": "view",
      "type": "function"
    },
    {
      "constant": true,
      "inputs": [
        {
          "internalType": "uint256",
          "name": "",
          "type": "uint256"
        }
      ],
      "name": "cats",
      "outputs": [
        {
          "internalType": "string",
          "name": "name",
          "type": "string"
        },
        {
          "internalType": "uint256",
          "name": "dna",
          "type": "uint256"
        },
        {
          "internalType": "uint16",
          "name": "winCount",
          "type": "uint16"
        },
        {
          "internalType": "uint16",
          "name": "hairBall",
          "type": "uint16"
        },
        {
          "internalType": "uint32",
          "name": "level",
          "type": "uint32"
        },
        {
          "internalType": "uint32",
          "name": "readyTime",
          "type": "uint32"
        }
      ],
      "payable": false,
      "stateMutability": "view",
      "type": "function"
    },
    {
      "constant": false,
      "inputs": [
        {
          "internalType": "uint256",
          "name": "price",
          "type": "uint256"
        }
      ],
      "name": "changeCatPrice",
      "outputs": [],
      "payable": false,
      "stateMutability": "nonpayable",
      "type": "function"
    },
    {
      "constant": false,
      "inputs": [
        {
          "internalType": "uint256",
          "name": "_catId",
          "type": "uint256"
        },
        {
          "internalType": "uint256",
          "name": "dna",
          "type": "uint256"
        }
      ],
      "name": "changeDna",
      "outputs": [],
      "payable": false,
      "stateMutability": "nonpayable",
      "type": "function"
    },
    {
      "constant": false,
      "inputs": [
        {
          "internalType": "uint256",
          "name": "_catId",
          "type": "uint256"
        },
        {
          "internalType": "string",
          "name": "_newName",
          "type": "string"
        }
      ],
      "name": "changeName",
      "outputs": [],
      "payable": false,
      "stateMutability": "nonpayable",
      "type": "function"
    },
    {
      "constant": true,
      "inputs": [],
      "name": "coolingTime",
      "outputs": [
        {
          "internalType": "uint256",
          "name": "",
          "type": "uint256"
        }
      ],
      "payable": false,
      "stateMutability": "view",
      "type": "function"
    },
    {
      "constant": false,
      "inputs": [
        {
          "internalType": "string",
          "name": "_name",
          "type": "string"
        }
      ],
      "name": "createRandomCat",
      "outputs": [],
      "payable": false,
      "stateMutability": "nonpayable",
      "type": "function"
    },
    {
      "constant": true,
      "inputs": [
        {
          "internalType": "address",
          "name": "_owner",
          "type": "address"
        }
      ],
      "name": "getCatsByOwner",
      "outputs": [
        {
          "internalType": "uint256[]",
          "name": "",
          "type": "uint256[]"
        }
      ],
      "payable": false,
      "stateMutability": "view",
      "type": "function"
    },
    {
      "constant": false,
      "inputs": [
        {
          "internalType": "uint256",
          "name": "_catId",
          "type": "uint256"
        }
      ],
      "name": "levelUp",
      "outputs": [],
      "payable": true,
      "stateMutability": "payable",
      "type": "function"
    },
    {
      "constant": true,
      "inputs": [],
      "name": "levelUpFee",
      "outputs": [
        {
          "internalType": "uint256",
          "name": "",
          "type": "uint256"
        }
      ],
      "payable": false,
      "stateMutability": "view",
      "type": "function"
    },
    {
      "constant": true,
      "inputs": [],
      "name": "minPrice",
      "outputs": [
        {
          "internalType": "uint256",
          "name": "",
          "type": "uint256"
        }
      ],
      "payable": false,
      "stateMutability": "view",
      "type": "function"
    },
    {
      "constant": true,
      "inputs": [],
      "name": "owner",
      "outputs": [
        {
          "internalType": "address payable",
          "name": "",
          "type": "address"
        }
      ],
      "payable": false,
      "stateMutability": "view",
      "type": "function"
    },
    {
      "constant": true,
      "inputs": [
        {
          "internalType": "uint256",
          "name": "_tokenId",
          "type": "uint256"
        }
      ],
      "name": "ownerOf",
      "outputs": [
        {
          "internalType": "address",
          "name": "_owner",
          "type": "address"
        }
      ],
      "payable": false,
      "stateMutability": "view",
      "type": "function"
    },
    {
      "constant": false,
      "inputs": [
        {
          "internalType": "uint256",
          "name": "_fee",
          "type": "uint256"
        }
      ],
      "name": "setLevelUpFee",
      "outputs": [],
      "payable": false,
      "stateMutability": "nonpayable",
      "type": "function"
    },
    {
      "constant": false,
      "inputs": [
        {
          "internalType": "uint256",
          "name": "_tokenId",
          "type": "uint256"
        }
      ],
      "name": "takeOwnership",
      "outputs": [],
      "payable": false,
      "stateMutability": "nonpayable",
      "type": "function"
    },
    {
      "constant": true,
      "inputs": [],
      "name": "tax",
      "outputs": [
        {
          "internalType": "uint256",
          "name": "",
          "type": "uint256"
        }
      ],
      "payable": false,
      "stateMutability": "view",
      "type": "function"
    },
    {
      "constant": false,
      "inputs": [
        {
          "internalType": "address",
          "name": "_to",
          "type": "address"
        },
        {
          "internalType": "uint256",
          "name": "_tokenId",
          "type": "uint256"
        }
      ],
      "name": "transfer",
      "outputs": [],
      "payable": false,
      "stateMutability": "nonpayable",
      "type": "function"
    },
    {
      "constant": false,
      "inputs": [
        {
          "internalType": "address payable",
          "name": "newOwner",
          "type": "address"
        }
      ],
      "name": "transferOwnership",
      "outputs": [],
      "payable": false,
      "stateMutability": "nonpayable",
      "type": "function"
    },
    {
      "constant": false,
      "inputs": [
        {
          "internalType": "uint256",
          "name": "_tax",
          "type": "uint256"
        }
      ],
      "name": "setTax",
      "outputs": [],
      "payable": false,
      "stateMutability": "nonpayable",
      "type": "function"
    },
    {
      "constant": false,
      "inputs": [
        {
          "internalType": "uint256",
          "name": "_minPrice",
          "type": "uint256"
        }
      ],
      "name": "setMinPrice",
      "outputs": [],
      "payable": false,
      "stateMutability": "nonpayable",
      "type": "function"
    },
    {
      "constant": false,
      "inputs": [
        {
          "internalType": "uint256",
          "name": "_catId",
          "type": "uint256"
        },
        {
          "internalType": "uint256",
          "name": "_price",
          "type": "uint256"
        }
      ],
      "name": "saleMyCat",
      "outputs": [],
      "payable": false,
      "stateMutability": "nonpayable",
      "type": "function"
    },
    {
      "constant": false,
      "inputs": [
        {
          "internalType": "uint256",
          "name": "_catId",
          "type": "uint256"
        }
      ],
      "name": "buyShopCat",
      "outputs": [],
      "payable": true,
      "stateMutability": "payable",
      "type": "function"
    },
    {
      "constant": true,
      "inputs": [],
      "name": "getShopCats",
      "outputs": [
        {
          "internalType": "uint256[]",
          "name": "",
          "type": "uint256[]"
        }
      ],
      "payable": false,
      "stateMutability": "view",
      "type": "function"
    }
  ],
  "bytecode": "0x60806040526010600155600154600a0a6002556001600355662386f26fc10000600455600060055566038d7ea4c68000600a55655af3107a4000600d55655af3107a4000600e55336000806101000a81548173ffffffffffffffffffffffffffffffffffffffff021916908373ffffffffffffffffffffffffffffffffffffffff1602179055506127b6806100956000396000f3fe6080604052600436106101cd5760003560e01c806388332415116100f7578063c39cbef111610095578063cda18e3411610064578063cda18e3414610b58578063e45be8eb14610ba7578063ecf3a02c14610bd2578063f2fde38b14610c3e576101cd565b8063c39cbef114610963578063c4114b12146109f3578063c6df962d14610a1e578063ccf670f814610b1d576101cd565b8063a9059cbb116100d1578063a9059cbb146107f9578063acb088be14610854578063b2e6ceeb14610882578063c1bab342146108bd576101cd565b8063883324151461074c5780638da5cb5b1461077757806399c8d556146107ce576101cd565b8063439c960d1161016f578063600ff8eb1161013e578063600ff8eb146105695780636352211e1461063157806370a08231146106ac578063710100c414610711576101cd565b8063439c960d1461047957806347c7e034146104a45780635ea8cd12146104e95780635faf288014610524576101cd565b80632e5bb6ff116101ab5780632e5bb6ff146103165780633aab8dc8146103515780633ad4c342146103cc5780633f31811a146103f7576101cd565b8063095ea7b3146101d25780630ce90ec21461022d5780632c59a9331461025b575b600080fd5b3480156101de57600080fd5b5061022b600480360360408110156101f557600080fd5b81019080803573ffffffffffffffffffffffffffffffffffffffff16906020019092919080359060200190929190505050610c8f565b005b6102596004803603602081101561024357600080fd5b8101908080359060200190929190505050610d4a565b005b6103146004803603602081101561027157600080fd5b810190808035906020019064010000000081111561028e57600080fd5b8201836020820111156102a057600080fd5b803590602001918460018302840111640100000000831117156102c257600080fd5b91908080601f016020809104026020016040519081016040528093929190818152602001838380828437600081840152601f19601f820116905080830192505050505050509192919290505050610e1c565b005b34801561032257600080fd5b5061034f6004803603602081101561033957600080fd5b8101908080359060200190929190505050610f0d565b005b34801561035d57600080fd5b5061038a6004803603602081101561037457600080fd5b8101908080359060200190929190505050610fd9565b604051808273ffffffffffffffffffffffffffffffffffffffff1673ffffffffffffffffffffffffffffffffffffffff16815260200191505060405180910390f35b3480156103d857600080fd5b506103e161100c565b6040518082815260200191505060405180910390f35b34801561040357600080fd5b506104306004803603602081101561041a57600080fd5b8101908080359060200190929190505050611012565b604051808373ffffffffffffffffffffffffffffffffffffffff1673ffffffffffffffffffffffffffffffffffffffff1681526020018281526020019250505060405180910390f35b34801561048557600080fd5b5061048e611056565b6040518082815260200191505060405180910390f35b3480156104b057600080fd5b506104e7600480360360408110156104c757600080fd5b81019080803590602001909291908035906020019092919050505061105c565b005b3480156104f557600080fd5b506105226004803603602081101561050c57600080fd5b810190808035906020019092919050505061123b565b005b34801561053057600080fd5b506105676004803603604081101561054757600080fd5b810190808035906020019092919080359060200190929190505050611307565b005b34801561057557600080fd5b5061062f6004803603602081101561058c57600080fd5b81019080803590602001906401000000008111156105a957600080fd5b8201836020820111156105bb57600080fd5b803590602001918460018302840111640100000000831117156105dd57600080fd5b91908080601f016020809104026020016040519081016040528093929190818152602001838380828437600081840152601f19601f82011690508083019250505050505050919291929050505061142d565b005b34801561063d57600080fd5b5061066a6004803603602081101561065457600080fd5b81019080803590602001909291905050506114a3565b604051808273ffffffffffffffffffffffffffffffffffffffff1673ffffffffffffffffffffffffffffffffffffffff16815260200191505060405180910390f35b3480156106b857600080fd5b506106fb600480360360208110156106cf57600080fd5b81019080803573ffffffffffffffffffffffffffffffffffffffff1690602001909291905050506114e0565b6040518082815260200191505060405180910390f35b34801561071d57600080fd5b5061074a6004803603602081101561073457600080fd5b8101908080359060200190929190505050611529565b005b34801561075857600080fd5b506107616115f5565b6040518082815260200191505060405180910390f35b34801561078357600080fd5b5061078c6115fb565b604051808273ffffffffffffffffffffffffffffffffffffffff1673ffffffffffffffffffffffffffffffffffffffff16815260200191505060405180910390f35b3480156107da57600080fd5b506107e3611620565b6040518082815260200191505060405180910390f35b34801561080557600080fd5b506108526004803603604081101561081c57600080fd5b81019080803573ffffffffffffffffffffffffffffffffffffffff16906020019092919080359060200190929190505050611626565b005b6108806004803603602081101561086a57600080fd5b8101908080359060200190929190505050611635565b005b34801561088e57600080fd5b506108bb600480360360208110156108a557600080fd5b8101908080359060200190929190505050611878565b005b3480156108c957600080fd5b5061090c600480360360208110156108e057600080fd5b81019080803573ffffffffffffffffffffffffffffffffffffffff169060200190929190505050611968565b6040518080602001828103825283818151815260200191508051906020019060200280838360005b8381101561094f578082015181840152602081019050610934565b505050509050019250505060405180910390f35b34801561096f57600080fd5b506109f16004803603604081101561098657600080fd5b8101908080359060200190929190803590602001906401000000008111156109ad57600080fd5b8201836020820111156109bf57600080fd5b803590602001918460018302840111640100000000831117156109e157600080fd5b9091929391929390505050611a95565b005b3480156109ff57600080fd5b50610a08611bc7565b6040518082815260200191505060405180910390f35b348015610a2a57600080fd5b50610a5760048036036020811015610a4157600080fd5b8101908080359060200190929190505050611bcd565b60405180806020018781526020018661ffff1661ffff1681526020018561ffff1661ffff1681526020018463ffffffff1663ffffffff1681526020018363ffffffff1663ffffffff168152602001828103825288818151815260200191508051906020019080838360005b83811015610add578082015181840152602081019050610ac2565b50505050905090810190601f168015610b0a5780820380516001836020036101000a031916815260200191505b5097505050505050505060405180910390f35b348015610b2957600080fd5b50610b5660048036036020811015610b4057600080fd5b8101908080359060200190929190505050611cea565b005b348015610b6457600080fd5b50610b9160048036036020811015610b7b57600080fd5b8101908080359060200190929190505050611db6565b6040518082815260200191505060405180910390f35b348015610bb357600080fd5b50610bbc611dce565b6040518082815260200191505060405180910390f35b348015610bde57600080fd5b50610be7611dd4565b6040518080602001828103825283818151815260200191508051906020019060200280838360005b83811015610c2a578082015181840152602081019050610c0f565b505050509050019250505060405180910390f35b348015610c4a57600080fd5b50610c8d60048036036020811015610c6157600080fd5b81019080803573ffffffffffffffffffffffffffffffffffffffff169060200190929190505050611e79565b005b81600b600083815260200190815260200160002060006101000a81548173ffffffffffffffffffffffffffffffffffffffff021916908373ffffffffffffffffffffffffffffffffffffffff1602179055508173ffffffffffffffffffffffffffffffffffffffff163373ffffffffffffffffffffffffffffffffffffffff167f8c5be1e5ebec7d5bd14f71427d1e84f3dd0314c0f7b2291e5b200ac8c7c3b925836040518082815260200191505060405180910390a35050565b600a54341015610dc2576040517f08c379a000000000000000000000000000000000000000000000000000000000815260040180806020018281038252601b8152602001807f596f75722062616c616e6365206973206e6f7420656e6f75676821000000000081525060200191505060405180910390fd5b60068181548110610dcf57fe5b9060005260206000209060040201600201600481819054906101000a900463ffffffff168092919060010191906101000a81548163ffffffff021916908363ffffffff1602179055505050565b6000600860003373ffffffffffffffffffffffffffffffffffffffff1673ffffffffffffffffffffffffffffffffffffffff1681526020019081526020016000205411610e6857600080fd5b600454341015610ee0576040517f08c379a000000000000000000000000000000000000000000000000000000000815260040180806020018281038252601b8152602001807f596f75722062616c616e6365206973206e6f7420656e6f75676821000000000081525060200191505060405180910390fd5b6000610eeb8261209c565b90506001600a8281610ef957fe5b068203019050610f09828261212d565b5050565b6000809054906101000a900473ffffffffffffffffffffffffffffffffffffffff1673ffffffffffffffffffffffffffffffffffffffff163373ffffffffffffffffffffffffffffffffffffffff1614610fcf576040517f08c379a00000000000000000000000000000000000000000000000000000000081526004018080602001828103825260138152602001807f4d75737420636f6e7472616374206f776e65720000000000000000000000000081525060200191505060405180910390fd5b80600d8190555050565b60076020528060005260406000206000915054906101000a900473ffffffffffffffffffffffffffffffffffffffff1681565b60045481565b600c6020528060005260406000206000915090508060000160009054906101000a900473ffffffffffffffffffffffffffffffffffffffff16908060010154905082565b60035481565b816007600082815260200190815260200160002060009054906101000a900473ffffffffffffffffffffffffffffffffffffffff1673ffffffffffffffffffffffffffffffffffffffff163373ffffffffffffffffffffffffffffffffffffffff16146110c857600080fd5b600e54600d5401821015611144576040517f08c379a00000000000000000000000000000000000000000000000000000000081526004018080602001828103825260168152602001807f596f757220707269636520697320746f6f206c6f77210000000000000000000081525060200191505060405180910390fd5b60405180604001604052803373ffffffffffffffffffffffffffffffffffffffff16815260200183815250600c600085815260200190815260200160002060008201518160000160006101000a81548173ffffffffffffffffffffffffffffffffffffffff021916908373ffffffffffffffffffffffffffffffffffffffff160217905550602082015181600101559050506111ec6001600f5461241890919063ffffffff16565b600f819055503373ffffffffffffffffffffffffffffffffffffffff16837fb8da542bb4b1f331b13c07a061e10641814cd3c44a1f525cfbbb1936bfc9df0960405160405180910390a3505050565b6000809054906101000a900473ffffffffffffffffffffffffffffffffffffffff1673ffffffffffffffffffffffffffffffffffffffff163373ffffffffffffffffffffffffffffffffffffffff16146112fd576040517f08c379a00000000000000000000000000000000000000000000000000000000081526004018080602001828103825260138152602001807f4d75737420636f6e7472616374206f776e65720000000000000000000000000081525060200191505060405180910390fd5b80600e8190555050565b601482816006828154811061131857fe5b906000526020600020906004020160020160049054906101000a900463ffffffff1663ffffffff161015611397576040517f08c379a00000000000000000000000000000000000000000000000000000000081526004018080602001828103825260298152602001806127596029913960400191505060405180910390fd5b836007600082815260200190815260200160002060009054906101000a900473ffffffffffffffffffffffffffffffffffffffff1673ffffffffffffffffffffffffffffffffffffffff163373ffffffffffffffffffffffffffffffffffffffff161461140357600080fd5b836006868154811061141157fe5b9060005260206000209060040201600101819055505050505050565b6000600860003373ffffffffffffffffffffffffffffffffffffffff1673ffffffffffffffffffffffffffffffffffffffff168152602001908152602001600020541461147957600080fd5b60006114848261209c565b9050600a818161149057fe5b068103905061149f828261212d565b5050565b60006007600083815260200190815260200160002060009054906101000a900473ffffffffffffffffffffffffffffffffffffffff169050919050565b6000600860008373ffffffffffffffffffffffffffffffffffffffff1673ffffffffffffffffffffffffffffffffffffffff168152602001908152602001600020549050919050565b6000809054906101000a900473ffffffffffffffffffffffffffffffffffffffff1673ffffffffffffffffffffffffffffffffffffffff163373ffffffffffffffffffffffffffffffffffffffff16146115eb576040517f08c379a00000000000000000000000000000000000000000000000000000000081526004018080602001828103825260138152602001807f4d75737420636f6e7472616374206f776e65720000000000000000000000000081525060200191505060405180910390fd5b8060048190555050565b60055481565b6000809054906101000a900473ffffffffffffffffffffffffffffffffffffffff1681565b600d5481565b611631338383612434565b5050565b600c6000828152602001908152602001600020600101543410156116c1576040517f08c379a00000000000000000000000000000000000000000000000000000000081526004018080602001828103825260168152602001807f596f75206e65656420746f20616464207072696365210000000000000000000081525060200191505060405180910390fd5b611702600c600083815260200190815260200160002060000160009054906101000a900473ffffffffffffffffffffffffffffffffffffffff163383612434565b600c600082815260200190815260200160002060000160009054906101000a900473ffffffffffffffffffffffffffffffffffffffff1673ffffffffffffffffffffffffffffffffffffffff166108fc600d5434039081150290604051600060405180830381858888f19350505050158015611782573d6000803e3d6000fd5b50600c6000828152602001908152602001600020600080820160006101000a81549073ffffffffffffffffffffffffffffffffffffffff0219169055600182016000905550506117de6001600f5461261c90919063ffffffff16565b600f81905550600c600082815260200190815260200160002060000160009054906101000a900473ffffffffffffffffffffffffffffffffffffffff1673ffffffffffffffffffffffffffffffffffffffff163373ffffffffffffffffffffffffffffffffffffffff16827f1221b00211799396a5d45f55ca4714aeb1513588a2a05affce83ed5314a6933660405160405180910390a450565b3373ffffffffffffffffffffffffffffffffffffffff16600b600083815260200190815260200160002060009054906101000a900473ffffffffffffffffffffffffffffffffffffffff1673ffffffffffffffffffffffffffffffffffffffff161461194c576040517f08c379a00000000000000000000000000000000000000000000000000000000081526004018080602001828103825260158152602001807f596f7520617265206e6f7420617070726f76656421000000000000000000000081525060200191505060405180910390fd5b6000611957826114a3565b9050611964813384612434565b5050565b606080600860008473ffffffffffffffffffffffffffffffffffffffff1673ffffffffffffffffffffffffffffffffffffffff168152602001908152602001600020546040519080825280602002602001820160405280156119d95781602001602082028038833980820191505090505b509050600080905060008090505b600680549050811015611a8a578473ffffffffffffffffffffffffffffffffffffffff166007600083815260200190815260200160002060009054906101000a900473ffffffffffffffffffffffffffffffffffffffff1673ffffffffffffffffffffffffffffffffffffffff161415611a7d5780838381518110611a6857fe5b60200260200101818152505081806001019250505b80806001019150506119e7565b508192505050919050565b6002838160068281548110611aa657fe5b906000526020600020906004020160020160049054906101000a900463ffffffff1663ffffffff161015611b25576040517f08c379a00000000000000000000000000000000000000000000000000000000081526004018080602001828103825260298152602001806127596029913960400191505060405180910390fd5b846007600082815260200190815260200160002060009054906101000a900473ffffffffffffffffffffffffffffffffffffffff1673ffffffffffffffffffffffffffffffffffffffff163373ffffffffffffffffffffffffffffffffffffffff1614611b9157600080fd5b848460068881548110611ba057fe5b90600052602060002090600402016000019190611bbe929190612633565b50505050505050565b600a5481565b60068181548110611bda57fe5b9060005260206000209060040201600091509050806000018054600181600116156101000203166002900480601f016020809104026020016040519081016040528092919081815260200182805460018160011615610100020316600290048015611c865780601f10611c5b57610100808354040283529160200191611c86565b820191906000526020600020905b815481529060010190602001808311611c6957829003601f168201915b5050505050908060010154908060020160009054906101000a900461ffff16908060020160029054906101000a900461ffff16908060020160049054906101000a900463ffffffff16908060020160089054906101000a900463ffffffff16905086565b6000809054906101000a900473ffffffffffffffffffffffffffffffffffffffff1673ffffffffffffffffffffffffffffffffffffffff163373ffffffffffffffffffffffffffffffffffffffff1614611dac576040517f08c379a00000000000000000000000000000000000000000000000000000000081526004018080602001828103825260138152602001807f4d75737420636f6e7472616374206f776e65720000000000000000000000000081525060200191505060405180910390fd5b80600a8190555050565b60096020528060005260406000206000915090505481565b600e5481565b606080600f54604051908082528060200260200182016040528015611e085781602001602082028038833980820191505090505b509050600080905060008090505b600680549050811015611e70576000600c60008381526020019081526020016000206001015414611e635780838381518110611e4e57fe5b60200260200101818152505081806001019250505b8080600101915050611e16565b50819250505090565b6000809054906101000a900473ffffffffffffffffffffffffffffffffffffffff1673ffffffffffffffffffffffffffffffffffffffff163373ffffffffffffffffffffffffffffffffffffffff1614611f3b576040517f08c379a00000000000000000000000000000000000000000000000000000000081526004018080602001828103825260138152602001807f4d75737420636f6e7472616374206f776e65720000000000000000000000000081525060200191505060405180910390fd5b600073ffffffffffffffffffffffffffffffffffffffff168173ffffffffffffffffffffffffffffffffffffffff161415611fde576040517f08c379a00000000000000000000000000000000000000000000000000000000081526004018080602001828103825260138152602001807f4d75737420636f6e7472616374206f776e65720000000000000000000000000081525060200191505060405180910390fd5b8073ffffffffffffffffffffffffffffffffffffffff166000809054906101000a900473ffffffffffffffffffffffffffffffffffffffff1673ffffffffffffffffffffffffffffffffffffffff167f8be0079c531659141344cd1fd0a4f28419497f9722a3daafe3b4186f6b6457e060405160405180910390a3806000806101000a81548173ffffffffffffffffffffffffffffffffffffffff021916908373ffffffffffffffffffffffffffffffffffffffff16021790555050565b600060025482426040516020018083805190602001908083835b602083106120d957805182526020820191506020810190506020830392506120b6565b6001836020036101000a038019825116818451168082178552505050505050905001828152602001925050506040516020818303038152906040528051906020012060001c8161212557fe5b069050919050565b6000600160066040518060c00160405280868152602001858152602001600061ffff168152602001600061ffff168152602001600163ffffffff168152602001600063ffffffff168152509080600181540180825580915050906001820390600052602060002090600402016000909192909190915060008201518160000190805190602001906121bf9291906126b3565b506020820151816001015560408201518160020160006101000a81548161ffff021916908361ffff16021790555060608201518160020160026101000a81548161ffff021916908361ffff16021790555060808201518160020160046101000a81548163ffffffff021916908363ffffffff16021790555060a08201518160020160086101000a81548163ffffffff021916908363ffffffff1602179055505050039050336007600083815260200190815260200160002060006101000a81548173ffffffffffffffffffffffffffffffffffffffff021916908373ffffffffffffffffffffffffffffffffffffffff1602179055506123086001600860003373ffffffffffffffffffffffffffffffffffffffff1673ffffffffffffffffffffffffffffffffffffffff1681526020019081526020016000205461241890919063ffffffff16565b600860003373ffffffffffffffffffffffffffffffffffffffff1673ffffffffffffffffffffffffffffffffffffffff16815260200190815260200160002081905550612361600160055461241890919063ffffffff16565b6005819055507fa6d701777246a1c406210d4b4af8683b00ad9a41b469546e5fb3e91c5e65808c8184846040518084815260200180602001838152602001828103825284818151815260200191508051906020019080838360005b838110156123d75780820151818401526020810190506123bc565b50505050905090810190601f1680156124045780820380516001836020036101000a031916815260200191505b5094505050505060405180910390a1505050565b60008082840190508381101561242a57fe5b8091505092915050565b6124876001600860008573ffffffffffffffffffffffffffffffffffffffff1673ffffffffffffffffffffffffffffffffffffffff1681526020019081526020016000205461241890919063ffffffff16565b600860008473ffffffffffffffffffffffffffffffffffffffff1673ffffffffffffffffffffffffffffffffffffffff1681526020019081526020016000208190555061251d6001600860008673ffffffffffffffffffffffffffffffffffffffff1673ffffffffffffffffffffffffffffffffffffffff1681526020019081526020016000205461261c90919063ffffffff16565b600860008573ffffffffffffffffffffffffffffffffffffffff1673ffffffffffffffffffffffffffffffffffffffff16815260200190815260200160002081905550816007600083815260200190815260200160002060006101000a81548173ffffffffffffffffffffffffffffffffffffffff021916908373ffffffffffffffffffffffffffffffffffffffff1602179055508173ffffffffffffffffffffffffffffffffffffffff168373ffffffffffffffffffffffffffffffffffffffff167fddf252ad1be2c89b69c2b068fc378daa952ba7f163c4a11628f55a4df523b3ef836040518082815260200191505060405180910390a3505050565b60008282111561262857fe5b818303905092915050565b828054600181600116156101000203166002900490600052602060002090601f016020900481019282601f1061267457803560ff19168380011785556126a2565b828001600101855582156126a2579182015b828111156126a1578235825591602001919060010190612686565b5b5090506126af9190612733565b5090565b828054600181600116156101000203166002900490600052602060002090601f016020900481019282601f106126f457805160ff1916838001178555612722565b82800160010185558215612722579182015b82811115612721578251825591602001919060010190612706565b5b50905061272f9190612733565b5090565b61275591905b80821115612751576000816000905550600101612739565b5090565b9056fe596f7572206c6576656c206973206e6f7420656e6f7567682c20706c65617365207570677261646521a265627a7a72315820bc72893eef4f390ca76c3f596a0decb64d33cfd46f4ea627157c820a4a76fe3664736f6c63430005100032",
  "source": "//pragma solidity ^0.5.12;\npragma solidity >=0.4.22 <0.9.0;\n\nimport \"./CatOwnership.sol\";\n\ncontract CatMarket is CatOwnership{\n    struct CatSales{\n        address payable seller;\n        uint price;\n    }\n    \n    \n    mapping (uint => CatSales) public catShop;\n    uint public tax = 0.0001 ether;\n    uint public minPrice = 0.0001 ether;\n\n    //  add\n    uint shopCatCount;\n\n    event SaleCat(uint indexed _catId, address indexed seller);\n    event BuyShopCat(uint indexed _catId, address indexed buyer, address indexed seller);\n\n    function setTax(uint _tax) external onlyOwner{\n        tax = _tax;\n    }\n\n    function setMinPrice(uint _minPrice) external onlyOwner{\n        minPrice = _minPrice;\n    }\n\n    function saleMyCat(uint _catId, uint _price) external onlyOwnerOf(_catId){\n        require(_price >= tax + minPrice, \"Your price is too low!\");\n        // address payable owner = msg.sender;\n        catShop[_catId] = CatSales(msg.sender, _price);       \n        shopCatCount = shopCatCount.add(1);//  add     \n        emit SaleCat(_catId, msg.sender);// change from price to msg.sender\n    }\n\n    function buyShopCat(uint _catId) public payable{ // change form externel to public\n        require(msg.value >= catShop[_catId].price, \"You need to add price!\");\n        _transfer(catShop[_catId].seller,msg.sender, _catId);\n        catShop[_catId].seller.transfer(msg.value - tax);\n\n        // CatSales memory catSales = catShop[_catId];\n        // require(address(0) != catSales.seller);\n\n        // transfer cat\n        // _transfer(catSales.seller, msg.sender, _catId);\n        // transfer money(sub tax)\n        // catSales.seller.transfer(msg.value - tax);\n        delete catShop[_catId];\n        //  add\n        shopCatCount = shopCatCount.sub(1);\n        emit BuyShopCat(_catId, msg.sender, catShop[_catId].seller);\n    }\n\n    function getShopCats() external view returns(uint[] memory) {\n        uint[] memory result = new uint[](shopCatCount);\n        uint counter = 0;\n        for (uint i = 0; i < cats.length; i++) {\n            if (catShop[i].price != 0) {\n                result[counter] = i;\n                counter++;\n            }\n        }\n        return result;\n    }\n}",
  "sourcePath": "/Users/zhangmengdie/Desktop/meow meow-new/contracts/CatMarket.sol",
  "compiler": {
    "name": "solc",
    "version": "0.5.16+commit.9c3226ce.Emscripten.clang"
  },
  "schemaVersion": "3.4.7",
  "updatedAt": "2022-05-01T05:47:28.668Z",
  "devdoc": {
    "methods": {
      "transferOwnership(address)": {
        "details": "Allows the current owner to transfer control of the contract to a newOwner.",
        "params": {
          "newOwner": "The address to transfer ownership to."
        }
      }
    }
  },
  "userdoc": {
    "methods": {}
  }
}